{
  "_format": "hh-sol-artifact-1",
  "contractName": "MessageReceiver",
  "sourceName": "contracts/MessageReceiver.sol",
  "abi": [
    {
      "inputs": [
        {
          "internalType": "address",
          "name": "_gateway",
          "type": "address"
        },
        {
          "internalType": "address",
          "name": "_gasReceiver",
          "type": "address"
        }
      ],
      "stateMutability": "nonpayable",
      "type": "constructor"
    },
    {
      "inputs": [],
      "name": "InvalidAddress",
      "type": "error"
    },
    {
      "inputs": [],
      "name": "NotApprovedByGateway",
      "type": "error"
    },
    {
      "anonymous": false,
      "inputs": [],
      "name": "Executed",
      "type": "event"
    },
    {
      "anonymous": false,
      "inputs": [
        {
          "indexed": false,
          "internalType": "string",
          "name": "reason",
          "type": "string"
        }
      ],
      "name": "Failed",
      "type": "event"
    },
    {
      "anonymous": false,
      "inputs": [
        {
          "indexed": true,
          "internalType": "address",
          "name": "from",
          "type": "address"
        },
        {
          "indexed": true,
          "internalType": "address",
          "name": "to",
          "type": "address"
        },
        {
          "indexed": false,
          "internalType": "uint256",
          "name": "value",
          "type": "uint256"
        }
      ],
      "name": "Transfer",
      "type": "event"
    },
    {
      "inputs": [
        {
          "internalType": "bytes32",
          "name": "commandId",
          "type": "bytes32"
        },
        {
          "internalType": "string",
          "name": "sourceChain",
          "type": "string"
        },
        {
          "internalType": "string",
          "name": "sourceAddress",
          "type": "string"
        },
        {
          "internalType": "bytes",
          "name": "payload",
          "type": "bytes"
        }
      ],
      "name": "execute",
      "outputs": [],
      "stateMutability": "nonpayable",
      "type": "function"
    },
    {
      "inputs": [
        {
          "internalType": "bytes32",
          "name": "commandId",
          "type": "bytes32"
        },
        {
          "internalType": "string",
          "name": "sourceChain",
          "type": "string"
        },
        {
          "internalType": "string",
          "name": "sourceAddress",
          "type": "string"
        },
        {
          "internalType": "bytes",
          "name": "payload",
          "type": "bytes"
        },
        {
          "internalType": "string",
          "name": "tokenSymbol",
          "type": "string"
        },
        {
          "internalType": "uint256",
          "name": "amount",
          "type": "uint256"
        }
      ],
      "name": "executeWithToken",
      "outputs": [],
      "stateMutability": "nonpayable",
      "type": "function"
    },
    {
      "inputs": [],
      "name": "gateway",
      "outputs": [
        {
          "internalType": "contract IAxelarGateway",
          "name": "",
          "type": "address"
        }
      ],
      "stateMutability": "view",
      "type": "function"
    },
    {
      "inputs": [],
      "name": "getMarketplace",
      "outputs": [
        {
          "internalType": "address",
          "name": "",
          "type": "address"
        }
      ],
      "stateMutability": "view",
      "type": "function"
    },
    {
      "inputs": [
        {
          "internalType": "address",
          "name": "_nftMarket",
          "type": "address"
        }
      ],
      "name": "setMarketplace",
      "outputs": [],
      "stateMutability": "nonpayable",
      "type": "function"
    },
    {
      "inputs": [],
      "name": "sourceChain",
      "outputs": [
        {
          "internalType": "string",
          "name": "",
          "type": "string"
        }
      ],
      "stateMutability": "view",
      "type": "function"
    }
  ],
  "bytecode": "0x60c06040523480156200001157600080fd5b506040516200173b3803806200173b8339810160408190526200003491620000a5565b816001600160a01b0381166200005d5760405163e6c4247b60e01b815260040160405180910390fd5b6001600160a01b039081166080521660a05250600080546001600160a01b03191633179055620000dd565b80516001600160a01b0381168114620000a057600080fd5b919050565b60008060408385031215620000b957600080fd5b620000c48362000088565b9150620000d46020840162000088565b90509250929050565b60805160a05161162762000114600039600050506000818160a6015281816101620152818161030c015261049b01526116276000f3fe608060405234801561001057600080fd5b50600436106100725760003560e01c80631c6ffa46116100505780631c6ffa46146100dd57806349160658146100f257806373ad6c2d1461010557600080fd5b80630d21bcd514610077578063116191b6146100a15780631a98b2e0146100c8575b600080fd5b6001546001600160a01b03165b6040516001600160a01b0390911681526020015b60405180910390f35b6100847f000000000000000000000000000000000000000000000000000000000000000081565b6100db6100d6366004610f86565b610118565b005b6100e5610234565b60405161009891906110ad565b6100db6101003660046110c7565b6102c2565b6100db610113366004611183565b6103d2565b6000858560405161012a9291906111a0565b6040519081900381207f1876eed900000000000000000000000000000000000000000000000000000000825291506001600160a01b037f00000000000000000000000000000000000000000000000000000000000000001690631876eed9906101a7908e908e908e908e908e9089908d908d908d906004016111d9565b602060405180830381600087803b1580156101c157600080fd5b505af11580156101d5573d6000803e3d6000fd5b505050506040513d601f19601f820116820180604052508101906101f9919061124d565b61021657604051631403112d60e21b815260040160405180910390fd5b6102278a8a8a8a8a8a8a8a8a610484565b5050505050505050505050565b6002805461024190611268565b80601f016020809104026020016040519081016040528092919081815260200182805461026d90611268565b80156102ba5780601f1061028f576101008083540402835291602001916102ba565b820191906000526020600020905b81548152906001019060200180831161029d57829003601f168201915b505050505081565b600082826040516102d49291906111a0565b6040519081900381207f5f6970c300000000000000000000000000000000000000000000000000000000825291506001600160a01b037f00000000000000000000000000000000000000000000000000000000000000001690635f6970c39061034b908b908b908b908b908b9089906004016112a3565b602060405180830381600087803b15801561036557600080fd5b505af1158015610379573d6000803e3d6000fd5b505050506040513d601f19601f8201168201806040525081019061039d919061124d565b6103ba57604051631403112d60e21b815260040160405180910390fd5b6103c8878787878787610c7a565b5050505050505050565b6000546001600160a01b0316331461044a576040517f08c379a000000000000000000000000000000000000000000000000000000000815260206004820152601e60248201527f4f6e6c79206f776e65722063616e20736574206d61726b6574706c6163650000604482015260640160405180910390fd5b600180547fffffffffffffffffffffffff0000000000000000000000000000000000000000166001600160a01b0392909216919091179055565b600080610493868801886112e4565b9150915060007f00000000000000000000000000000000000000000000000000000000000000006001600160a01b031663935b13f687876040518363ffffffff1660e01b81526004016104e7929190611310565b60206040518083038186803b1580156104ff57600080fd5b505afa158015610513573d6000803e3d6000fd5b505050506040513d601f19601f82011682018060405250810190610537919061132c565b6001546040517f7655abc8000000000000000000000000000000000000000000000000000000008152600481018590529192506000916001600160a01b0390911690637655abc89060240160e06040518083038186803b15801561059a57600080fd5b505afa1580156105ae573d6000803e3d6000fd5b505050506040513d601f19601f820116820180604052508101906105d2919061135f565b6001546040517fca7dd3750000000000000000000000000000000000000000000000000000000081526004810186905291925083916000916001600160a01b03169063ca7dd3759060240160206040518083038186803b15801561063557600080fd5b505afa158015610649573d6000803e3d6000fd5b505050506040513d601f19601f8201168201806040525081019061066d91906113f9565b90506000600160009054906101000a90046001600160a01b03166001600160a01b0316637749cf236040518163ffffffff1660e01b815260040160206040518083038186803b1580156106bf57600080fd5b505afa1580156106d3573d6000803e3d6000fd5b505050506040513d601f19601f820116820180604052508101906106f791906113f9565b90508188146107ef5760405163a9059cbb60e01b81526001600160a01b038881166004830152602482018a905284169063a9059cbb90604401602060405180830381600087803b15801561074a57600080fd5b505af115801561075e573d6000803e3d6000fd5b505050506040513d601f19601f82011682018060405250810190610782919061124d565b507fc65844e8ee2558ed559edaad0fdb8d4149b19d5bb4d863bc498bed24f6b2df516040516107e2906020808252601f908201527f4e667420707269636520616e64207061796d656e74206e6f742074616c6c7900604082015260600190565b60405180910390a1610c3f565b428460a0015111158061080357508360c001515b156108ea5760405163a9059cbb60e01b81526001600160a01b038881166004830152602482018a905284169063a9059cbb90604401602060405180830381600087803b15801561085257600080fd5b505af1158015610866573d6000803e3d6000fd5b505050506040513d601f19601f8201168201806040525081019061088a919061124d565b507fc65844e8ee2558ed559edaad0fdb8d4149b19d5bb4d863bc498bed24f6b2df516040516107e29060208082526012908201527f4e6674206973206e6f74206f6e2073616c650000000000000000000000000000604082015260600190565b6000861180156108fa5750808611155b6109e05760405163a9059cbb60e01b81526001600160a01b038881166004830152602482018a905284169063a9059cbb90604401602060405180830381600087803b15801561094857600080fd5b505af115801561095c573d6000803e3d6000fd5b505050506040513d601f19601f82011682018060405250810190610980919061124d565b507fc65844e8ee2558ed559edaad0fdb8d4149b19d5bb4d863bc498bed24f6b2df516040516107e2906020808252600e908201527f496e76616c6964206974656d4964000000000000000000000000000000000000604082015260600190565b600154604080517f893d20e800000000000000000000000000000000000000000000000000000000815290516000926001600160a01b03169163893d20e8916004808301926020929190829003018186803b158015610a3e57600080fd5b505afa158015610a52573d6000803e3d6000fd5b505050506040513d601f19601f82011682018060405250810190610a76919061132c565b6080860151606087015160405163a9059cbb60e01b81526001600160a01b039283166004820152602481019190915291925085169063a9059cbb90604401602060405180830381600087803b158015610ace57600080fd5b505af1158015610ae2573d6000803e3d6000fd5b505050506040513d601f19601f82011682018060405250810190610b06919061124d565b50836001600160a01b031663a9059cbb82876060015186610b279190611412565b6040517fffffffff0000000000000000000000000000000000000000000000000000000060e085901b1681526001600160a01b0390921660048301526024820152604401602060405180830381600087803b158015610b8557600080fd5b505af1158015610b99573d6000803e3d6000fd5b505050506040513d601f19601f82011682018060405250810190610bbd919061124d565b506001546040517fcfeb07a1000000000000000000000000000000000000000000000000000000008152600481018990526001600160a01b038a811660248301529091169063cfeb07a190604401600060405180830381600087803b158015610c2557600080fd5b505af1158015610c39573d6000803e3d6000fd5b50505050505b6040517f68f46c45a243a0e9065a97649faf9a5afe1692f2679e650c2f853b9cd734cc0e90600090a150505050505050505050505050505050565b610c8660028787610ea4565b5060008080808080808080610c9d8a8c018c6114c4565b9850985098509850985098509850985098508660021415610d58576040517e75a31700000000000000000000000000000000000000000000000000000000815288906001600160a01b038216906275a31790610cff908d90869060040161157e565b602060405180830381600087803b158015610d1957600080fd5b505af1158015610d2d573d6000803e3d6000fd5b505050506040513d601f19601f82011682018060405250810190610d5191906113f9565b5050610e6a565b8660011415610de557600160009054906101000a90046001600160a01b03166001600160a01b03166360898d25898888888e89896040518863ffffffff1660e01b8152600401610dae97969594939291906115a0565b600060405180830381600087803b158015610dc857600080fd5b505af1158015610ddc573d6000803e3d6000fd5b50505050610e6a565b86610e6a576001546040517fab1569c1000000000000000000000000000000000000000000000000000000008152600481018890526001600160a01b038b811660248301529091169063ab1569c190604401600060405180830381600087803b158015610e5157600080fd5b505af1158015610e65573d6000803e3d6000fd5b505050505b6040517f68f46c45a243a0e9065a97649faf9a5afe1692f2679e650c2f853b9cd734cc0e90600090a1505050505050505050505050505050565b828054610eb090611268565b90600052602060002090601f016020900481019282610ed25760008555610f18565b82601f10610eeb5782800160ff19823516178555610f18565b82800160010185558215610f18579182015b82811115610f18578235825591602001919060010190610efd565b50610f24929150610f28565b5090565b5b80821115610f245760008155600101610f29565b60008083601f840112610f4f57600080fd5b50813567ffffffffffffffff811115610f6757600080fd5b602083019150836020828501011115610f7f57600080fd5b9250929050565b60008060008060008060008060008060c08b8d031215610fa557600080fd5b8a35995060208b013567ffffffffffffffff80821115610fc457600080fd5b610fd08e838f01610f3d565b909b50995060408d0135915080821115610fe957600080fd5b610ff58e838f01610f3d565b909950975060608d013591508082111561100e57600080fd5b61101a8e838f01610f3d565b909750955060808d013591508082111561103357600080fd5b506110408d828e01610f3d565b9150809450508092505060a08b013590509295989b9194979a5092959850565b6000815180845260005b818110156110865760208185018101518683018201520161106a565b81811115611098576000602083870101525b50601f01601f19169290920160200192915050565b6020815260006110c06020830184611060565b9392505050565b60008060008060008060006080888a0312156110e257600080fd5b87359650602088013567ffffffffffffffff8082111561110157600080fd5b61110d8b838c01610f3d565b909850965060408a013591508082111561112657600080fd5b6111328b838c01610f3d565b909650945060608a013591508082111561114b57600080fd5b506111588a828b01610f3d565b989b979a50959850939692959293505050565b6001600160a01b038116811461118057600080fd5b50565b60006020828403121561119557600080fd5b81356110c08161116b565b8183823760009101908152919050565b81835281816020850137506000828201602090810191909152601f909101601f19169091010190565b89815260c0602082015260006111f360c083018a8c6111b0565b828103604084015261120681898b6111b0565b905086606084015282810360808401526112218186886111b0565b9150508260a08301529a9950505050505050505050565b8051801515811461124857600080fd5b919050565b60006020828403121561125f57600080fd5b6110c082611238565b600181811c9082168061127c57607f821691505b6020821081141561129d57634e487b7160e01b600052602260045260246000fd5b50919050565b8681526080602082015260006112bd6080830187896111b0565b82810360408401526112d08186886111b0565b915050826060830152979650505050505050565b600080604083850312156112f757600080fd5b82356113028161116b565b946020939093013593505050565b6020815260006113246020830184866111b0565b949350505050565b60006020828403121561133e57600080fd5b81516110c08161116b565b634e487b7160e01b600052604160045260246000fd5b600060e0828403121561137157600080fd5b60405160e0810181811067ffffffffffffffff8211171561139457611394611349565b6040528251815260208301516113a98161116b565b80602083015250604083015160408201526060830151606082015260808301516113d28161116b565b608082015260a083810151908201526113ed60c08401611238565b60c08201529392505050565b60006020828403121561140b57600080fd5b5051919050565b60008282101561143257634e487b7160e01b600052601160045260246000fd5b500390565b600082601f83011261144857600080fd5b813567ffffffffffffffff8082111561146357611463611349565b604051601f8301601f19908116603f0116810190828211818310171561148b5761148b611349565b816040528381528660208588010111156114a457600080fd5b836020870160208301376000602085830101528094505050505092915050565b60008060008060008060008060006101208a8c0312156114e357600080fd5b89356114ee8161116b565b985060208a01356114fe8161116b565b975060408a0135965060608a0135955060808a0135945060a08a0135935060c08a0135925060e08a013567ffffffffffffffff8082111561153e57600080fd5b61154a8d838e01611437565b93506101008c013591508082111561156157600080fd5b5061156e8c828d01611437565b9150509295985092959850929598565b6001600160a01b03831681526040602082015260006113246040830184611060565b60006001600160a01b03808a1683528860208401528760408401528660608401528086166080840152508360a083015260e060c08301526115e460e0830184611060565b999850505050505050505056fea2646970667358221220fa5aba5be7f5a014a28e60680cd3a8f8f0baa83b6775db19e1cb5d610486b44c64736f6c63430008090033",
  "linkReferences": {},
  "deployedLinkReferences": {}
}