{
  "_format": "hh-sol-artifact-1",
  "contractName": "MessageSender",
  "sourceName": "contracts/MessageSender.sol",
  "abi": [
    {
      "inputs": [
        {
          "internalType": "address",
          "name": "_gateway",
          "type": "address"
        },
        {
          "internalType": "address",
          "name": "_gasReceiver",
          "type": "address"
        }
      ],
      "stateMutability": "nonpayable",
      "type": "constructor"
    },
    {
      "inputs": [
        {
          "internalType": "string",
          "name": "destinationChain",
          "type": "string"
        },
        {
          "internalType": "string",
          "name": "destinationAddress",
          "type": "string"
        },
        {
          "internalType": "string",
          "name": "symbol",
          "type": "string"
        },
        {
          "internalType": "uint256",
          "name": "amount",
          "type": "uint256"
        },
        {
          "internalType": "uint256",
          "name": "itemId",
          "type": "uint256"
        }
      ],
      "name": "crossChainBuy",
      "outputs": [],
      "stateMutability": "payable",
      "type": "function"
    },
    {
      "inputs": [
        {
          "internalType": "string",
          "name": "destinationChain",
          "type": "string"
        },
        {
          "internalType": "string",
          "name": "destinationAddress",
          "type": "string"
        },
        {
          "internalType": "uint256",
          "name": "tokenId",
          "type": "uint256"
        }
      ],
      "name": "crossChainDelist",
      "outputs": [],
      "stateMutability": "payable",
      "type": "function"
    },
    {
      "inputs": [
        {
          "internalType": "string",
          "name": "destinationChain",
          "type": "string"
        },
        {
          "internalType": "string",
          "name": "destinationAddress",
          "type": "string"
        },
        {
          "internalType": "uint256",
          "name": "tokenId",
          "type": "uint256"
        },
        {
          "internalType": "uint256",
          "name": "amount",
          "type": "uint256"
        },
        {
          "internalType": "uint256",
          "name": "deadline",
          "type": "uint256"
        }
      ],
      "name": "crossChainList",
      "outputs": [],
      "stateMutability": "payable",
      "type": "function"
    }
  ],
  "bytecode": "0x60c060405234801561001057600080fd5b50604051610c37380380610c3783398101604081905261002f91610062565b6001600160a01b0391821660a05216608052610095565b80516001600160a01b038116811461005d57600080fd5b919050565b6000806040838503121561007557600080fd5b61007e83610046565b915061008c60208401610046565b90509250929050565b60805160a051610b546100e3600039600081816101610152818161020b01528181610365015281816104da015261064401526000818160d40152818161041a01526105b70152610b546000f3fe6080604052600436106100345760003560e01c806336c3450b14610039578063d78886bc1461004e578063fa1d003a14610061575b600080fd5b61004c610047366004610706565b610074565b005b61004c61005c36600461077a565b6101d8565b61004c61006f366004610823565b61055b565b604080513360208201526000918101829052606081018290526080810183905260a0810182905260c0810182905260e00160408051601f198184030181529190529050341561014a57604051630c93e3bb60e01b81526001600160a01b037f00000000000000000000000000000000000000000000000000000000000000001690630c93e3bb9034906101179030908b908b908b908b908a903390600401610920565b6000604051808303818588803b15801561013057600080fd5b505af1158015610144573d6000803e3d6000fd5b50505050505b604051631c92115f60e01b81526001600160a01b037f00000000000000000000000000000000000000000000000000000000000000001690631c92115f9061019e9089908990899089908890600401610983565b600060405180830381600087803b1580156101b857600080fd5b505af11580156101cc573d6000803e3d6000fd5b50505050505050505050565b6040517f935b13f60000000000000000000000000000000000000000000000000000000081526000906001600160a01b037f0000000000000000000000000000000000000000000000000000000000000000169063935b13f69061024290889088906004016109ca565b60206040518083038186803b15801561025a57600080fd5b505afa15801561026e573d6000803e3d6000fd5b505050506040513d601f19601f8201168201806040525081019061029291906109e6565b6040517f23b872dd000000000000000000000000000000000000000000000000000000008152336004820152306024820152604481018590529091506001600160a01b038216906323b872dd90606401602060405180830381600087803b1580156102fc57600080fd5b505af1158015610310573d6000803e3d6000fd5b505050506040513d601f19601f820116820180604052508101906103349190610a16565b506040517f095ea7b30000000000000000000000000000000000000000000000000000000081526001600160a01b037f0000000000000000000000000000000000000000000000000000000000000000811660048301526024820185905282169063095ea7b390604401602060405180830381600087803b1580156103b857600080fd5b505af11580156103cc573d6000803e3d6000fd5b505050506040513d601f19601f820116820180604052508101906103f09190610a16565b5060408051336020820152808201849052815180820383018152606090910190915234156104aa577f00000000000000000000000000000000000000000000000000000000000000006001600160a01b031663c62c200234308d8d8d8d888e8e8e336040518c63ffffffff1660e01b81526004016104779a99989796959493929190610a38565b6000604051808303818588803b15801561049057600080fd5b505af11580156104a4573d6000803e3d6000fd5b50505050505b6040517fb54170840000000000000000000000000000000000000000000000000000000081526001600160a01b037f0000000000000000000000000000000000000000000000000000000000000000169063b54170849061051d908d908d908d908d9088908e908e908e90600401610ab8565b600060405180830381600087803b15801561053757600080fd5b505af115801561054b573d6000803e3d6000fd5b5050505050505050505050505050565b60408051336020820152600081830152600160608201526080810185905260a0810184905260c08082018490528251808303909101815260e0909101909152341561062d57604051630c93e3bb60e01b81526001600160a01b037f00000000000000000000000000000000000000000000000000000000000000001690630c93e3bb9034906105fa9030908d908d908d908d908a903390600401610920565b6000604051808303818588803b15801561061357600080fd5b505af1158015610627573d6000803e3d6000fd5b50505050505b604051631c92115f60e01b81526001600160a01b037f00000000000000000000000000000000000000000000000000000000000000001690631c92115f90610681908b908b908b908b908890600401610983565b600060405180830381600087803b15801561069b57600080fd5b505af11580156106af573d6000803e3d6000fd5b505050505050505050505050565b60008083601f8401126106cf57600080fd5b50813567ffffffffffffffff8111156106e757600080fd5b6020830191508360208285010111156106ff57600080fd5b9250929050565b60008060008060006060868803121561071e57600080fd5b853567ffffffffffffffff8082111561073657600080fd5b61074289838a016106bd565b9097509550602088013591508082111561075b57600080fd5b50610768888289016106bd565b96999598509660400135949350505050565b60008060008060008060008060a0898b03121561079657600080fd5b883567ffffffffffffffff808211156107ae57600080fd5b6107ba8c838d016106bd565b909a50985060208b01359150808211156107d357600080fd5b6107df8c838d016106bd565b909850965060408b01359150808211156107f857600080fd5b506108058b828c016106bd565b999c989b509699959896976060870135966080013595509350505050565b600080600080600080600060a0888a03121561083e57600080fd5b873567ffffffffffffffff8082111561085657600080fd5b6108628b838c016106bd565b909950975060208a013591508082111561087b57600080fd5b506108888a828b016106bd565b989b979a50986040810135976060820135975060809091013595509350505050565b81835281816020850137506000828201602090810191909152601f909101601f19169091010190565b6000815180845260005b818110156108f9576020818501810151868301820152016108dd565b8181111561090b576000602083870101525b50601f01601f19169290920160200192915050565b60006001600160a01b03808a16835260a0602084015261094460a08401898b6108aa565b838103604085015261095781888a6108aa565b9050838103606085015261096b81876108d3565b92505080841660808401525098975050505050505050565b6060815260006109976060830187896108aa565b82810360208401526109aa8186886108aa565b905082810360408401526109be81856108d3565b98975050505050505050565b6020815260006109de6020830184866108aa565b949350505050565b6000602082840312156109f857600080fd5b81516001600160a01b0381168114610a0f57600080fd5b9392505050565b600060208284031215610a2857600080fd5b81518015158114610a0f57600080fd5b60006001600160a01b03808d16835260e06020840152610a5c60e084018c8e6108aa565b8381036040850152610a6f818b8d6108aa565b90508381036060850152610a83818a6108d3565b90508381036080850152610a9881888a6108aa565b60a0850196909652509290921660c0909101525098975050505050505050565b60a081526000610acc60a083018a8c6108aa565b8281036020840152610adf81898b6108aa565b90508281036040840152610af381886108d3565b90508281036060840152610b088186886108aa565b915050826080830152999850505050505050505056fea264697066735822122025af67589f95134eae729f785313c0c4e90eae11f77b86c8ca79f28cd0ecc79964736f6c63430008090033",
  "linkReferences": {},
  "deployedLinkReferences": {}
}