{
  "_format": "hh-sol-artifact-1",
  "contractName": "MessageReceiver",
  "sourceName": "contracts/MessageReceiver.sol",
  "abi": [
    {
      "inputs": [
        {
          "internalType": "address",
          "name": "_gateway",
          "type": "address"
        },
        {
          "internalType": "address",
          "name": "_gasReceiver",
          "type": "address"
        }
      ],
      "stateMutability": "nonpayable",
      "type": "constructor"
    },
    {
      "inputs": [],
      "name": "InvalidAddress",
      "type": "error"
    },
    {
      "inputs": [],
      "name": "NotApprovedByGateway",
      "type": "error"
    },
    {
      "anonymous": false,
      "inputs": [],
      "name": "Executed",
      "type": "event"
    },
    {
      "anonymous": false,
      "inputs": [
        {
          "indexed": false,
          "internalType": "string",
          "name": "reason",
          "type": "string"
        }
      ],
      "name": "Failed",
      "type": "event"
    },
    {
      "anonymous": false,
      "inputs": [
        {
          "indexed": true,
          "internalType": "address",
          "name": "from",
          "type": "address"
        },
        {
          "indexed": true,
          "internalType": "address",
          "name": "to",
          "type": "address"
        },
        {
          "indexed": false,
          "internalType": "uint256",
          "name": "value",
          "type": "uint256"
        }
      ],
      "name": "Transfer",
      "type": "event"
    },
    {
      "inputs": [
        {
          "internalType": "bytes32",
          "name": "commandId",
          "type": "bytes32"
        },
        {
          "internalType": "string",
          "name": "sourceChain",
          "type": "string"
        },
        {
          "internalType": "string",
          "name": "sourceAddress",
          "type": "string"
        },
        {
          "internalType": "bytes",
          "name": "payload",
          "type": "bytes"
        }
      ],
      "name": "execute",
      "outputs": [],
      "stateMutability": "nonpayable",
      "type": "function"
    },
    {
      "inputs": [
        {
          "internalType": "bytes32",
          "name": "commandId",
          "type": "bytes32"
        },
        {
          "internalType": "string",
          "name": "sourceChain",
          "type": "string"
        },
        {
          "internalType": "string",
          "name": "sourceAddress",
          "type": "string"
        },
        {
          "internalType": "bytes",
          "name": "payload",
          "type": "bytes"
        },
        {
          "internalType": "string",
          "name": "tokenSymbol",
          "type": "string"
        },
        {
          "internalType": "uint256",
          "name": "amount",
          "type": "uint256"
        }
      ],
      "name": "executeWithToken",
      "outputs": [],
      "stateMutability": "nonpayable",
      "type": "function"
    },
    {
      "inputs": [],
      "name": "gateway",
      "outputs": [
        {
          "internalType": "contract IAxelarGateway",
          "name": "",
          "type": "address"
        }
      ],
      "stateMutability": "view",
      "type": "function"
    },
    {
      "inputs": [],
      "name": "getMarketplace",
      "outputs": [
        {
          "internalType": "address",
          "name": "",
          "type": "address"
        }
      ],
      "stateMutability": "view",
      "type": "function"
    },
    {
      "inputs": [
        {
          "internalType": "address",
          "name": "_nftMarket",
          "type": "address"
        }
      ],
      "name": "setMarketplace",
      "outputs": [],
      "stateMutability": "nonpayable",
      "type": "function"
    },
    {
      "inputs": [],
      "name": "sourceChain",
      "outputs": [
        {
          "internalType": "string",
          "name": "",
          "type": "string"
        }
      ],
      "stateMutability": "view",
      "type": "function"
    }
  ],
  "bytecode": "0x60c06040523480156200001157600080fd5b50604051620016bc380380620016bc8339810160408190526200003491620000a5565b816001600160a01b0381166200005d5760405163e6c4247b60e01b815260040160405180910390fd5b6001600160a01b039081166080521660a05250600080546001600160a01b03191633179055620000dd565b80516001600160a01b0381168114620000a057600080fd5b919050565b60008060408385031215620000b957600080fd5b620000c48362000088565b9150620000d46020840162000088565b90509250929050565b60805160a0516115a862000114600039600050506000818160a6015281816101620152818161030c015261049b01526115a86000f3fe608060405234801561001057600080fd5b50600436106100725760003560e01c80631c6ffa46116100505780631c6ffa46146100dd57806349160658146100f257806373ad6c2d1461010557600080fd5b80630d21bcd514610077578063116191b6146100a15780631a98b2e0146100c8575b600080fd5b6001546001600160a01b03165b6040516001600160a01b0390911681526020015b60405180910390f35b6100847f000000000000000000000000000000000000000000000000000000000000000081565b6100db6100d6366004611076565b610118565b005b6100e5610234565b6040516100989190611150565b6100db6101003660046111a5565b6102c2565b6100db610113366004611261565b6103d2565b6000858560405161012a929190611285565b6040519081900381207f1876eed900000000000000000000000000000000000000000000000000000000825291506001600160a01b037f00000000000000000000000000000000000000000000000000000000000000001690631876eed9906101a7908e908e908e908e908e9089908d908d908d906004016112be565b602060405180830381600087803b1580156101c157600080fd5b505af11580156101d5573d6000803e3d6000fd5b505050506040513d601f19601f820116820180604052508101906101f99190611332565b61021657604051631403112d60e21b815260040160405180910390fd5b6102278a8a8a8a8a8a8a8a8a610484565b5050505050505050505050565b600280546102419061134d565b80601f016020809104026020016040519081016040528092919081815260200182805461026d9061134d565b80156102ba5780601f1061028f576101008083540402835291602001916102ba565b820191906000526020600020905b81548152906001019060200180831161029d57829003601f168201915b505050505081565b600082826040516102d4929190611285565b6040519081900381207f5f6970c300000000000000000000000000000000000000000000000000000000825291506001600160a01b037f00000000000000000000000000000000000000000000000000000000000000001690635f6970c39061034b908b908b908b908b908b908990600401611388565b602060405180830381600087803b15801561036557600080fd5b505af1158015610379573d6000803e3d6000fd5b505050506040513d601f19601f8201168201806040525081019061039d9190611332565b6103ba57604051631403112d60e21b815260040160405180910390fd5b6103c8878787878787610e08565b5050505050505050565b6000546001600160a01b0316331461044a576040517f08c379a000000000000000000000000000000000000000000000000000000000815260206004820152601e60248201527f4f6e6c79206f776e65722063616e20736574206d61726b6574706c6163650000604482015260640160405180910390fd5b600180547fffffffffffffffffffffffff0000000000000000000000000000000000000000166001600160a01b0392909216919091179055565b600080610493868801886113c9565b9150915060007f00000000000000000000000000000000000000000000000000000000000000006001600160a01b031663935b13f687876040518363ffffffff1660e01b81526004016104e79291906113f5565b60206040518083038186803b1580156104ff57600080fd5b505afa158015610513573d6000803e3d6000fd5b505050506040513d601f19601f820116820180604052508101906105379190611411565b6001546040517f7655abc8000000000000000000000000000000000000000000000000000000008152600481018590529192506000916001600160a01b0390911690637655abc89060240160e06040518083038186803b15801561059a57600080fd5b505afa1580156105ae573d6000803e3d6000fd5b505050506040513d601f19601f820116820180604052508101906105d29190611439565b6001546040517fca7dd3750000000000000000000000000000000000000000000000000000000081526004810186905291925083916000916001600160a01b03169063ca7dd3759060240160206040518083038186803b15801561063557600080fd5b505afa158015610649573d6000803e3d6000fd5b505050506040513d601f19601f8201168201806040525081019061066d91906114db565b6001546040517fdd62ed3e0000000000000000000000000000000000000000000000000000000081523060048201526001600160a01b0391821660248201529192506000919084169063dd62ed3e9060440160206040518083038186803b1580156106d757600080fd5b505afa1580156106eb573d6000803e3d6000fd5b505050506040513d601f19601f8201168201806040525081019061070f91906114db565b90506000600160009054906101000a90046001600160a01b03166001600160a01b0316637749cf236040518163ffffffff1660e01b815260040160206040518083038186803b15801561076157600080fd5b505afa158015610775573d6000803e3d6000fd5b505050506040513d601f19601f8201168201806040525081019061079991906114db565b90508289146108915760405163a9059cbb60e01b81526001600160a01b038981166004830152602482018b905285169063a9059cbb90604401602060405180830381600087803b1580156107ec57600080fd5b505af1158015610800573d6000803e3d6000fd5b505050506040513d601f19601f820116820180604052508101906108249190611332565b507fc65844e8ee2558ed559edaad0fdb8d4149b19d5bb4d863bc498bed24f6b2df51604051610884906020808252601f908201527f4e667420707269636520616e64207061796d656e74206e6f742074616c6c7900604082015260600190565b60405180910390a1610dcc565b428560a001511115806108a657508460c00151155b1561098d5760405163a9059cbb60e01b81526001600160a01b038981166004830152602482018b905285169063a9059cbb90604401602060405180830381600087803b1580156108f557600080fd5b505af1158015610909573d6000803e3d6000fd5b505050506040513d601f19601f8201168201806040525081019061092d9190611332565b507fc65844e8ee2558ed559edaad0fdb8d4149b19d5bb4d863bc498bed24f6b2df516040516108849060208082526012908201527f4e6674206973206e6f74206f6e2073616c650000000000000000000000000000604082015260600190565b60008211610a775760405163a9059cbb60e01b81526001600160a01b038981166004830152602482018b905285169063a9059cbb90604401602060405180830381600087803b1580156109df57600080fd5b505af11580156109f3573d6000803e3d6000fd5b505050506040513d601f19601f82011682018060405250810190610a179190611332565b507fc65844e8ee2558ed559edaad0fdb8d4149b19d5bb4d863bc498bed24f6b2df51604051610884906020808252600e908201527f416c6c6f77616e6365203c3d2030000000000000000000000000000000000000604082015260600190565b600087118015610a875750808711155b610b6d5760405163a9059cbb60e01b81526001600160a01b038981166004830152602482018b905285169063a9059cbb90604401602060405180830381600087803b158015610ad557600080fd5b505af1158015610ae9573d6000803e3d6000fd5b505050506040513d601f19601f82011682018060405250810190610b0d9190611332565b507fc65844e8ee2558ed559edaad0fdb8d4149b19d5bb4d863bc498bed24f6b2df51604051610884906020808252600e908201527f496e76616c6964206974656d4964000000000000000000000000000000000000604082015260600190565b600154604080517f893d20e800000000000000000000000000000000000000000000000000000000815290516000926001600160a01b03169163893d20e8916004808301926020929190829003018186803b158015610bcb57600080fd5b505afa158015610bdf573d6000803e3d6000fd5b505050506040513d601f19601f82011682018060405250810190610c039190611411565b6080870151606088015160405163a9059cbb60e01b81526001600160a01b039283166004820152602481019190915291925086169063a9059cbb90604401602060405180830381600087803b158015610c5b57600080fd5b505af1158015610c6f573d6000803e3d6000fd5b505050506040513d601f19601f82011682018060405250810190610c939190611332565b50846001600160a01b031663a9059cbb82886060015187610cb491906114f4565b6040517fffffffff0000000000000000000000000000000000000000000000000000000060e085901b1681526001600160a01b0390921660048301526024820152604401602060405180830381600087803b158015610d1257600080fd5b505af1158015610d26573d6000803e3d6000fd5b505050506040513d601f19601f82011682018060405250810190610d4a9190611332565b506001546040517fcfeb07a1000000000000000000000000000000000000000000000000000000008152600481018a90526001600160a01b038b811660248301529091169063cfeb07a190604401600060405180830381600087803b158015610db257600080fd5b505af1158015610dc6573d6000803e3d6000fd5b50505050505b6040517f68f46c45a243a0e9065a97649faf9a5afe1692f2679e650c2f853b9cd734cc0e90600090a15050505050505050505050505050505050565b610e1460028787610f94565b5060008080808080610e2887890189611519565b9550955095509550955095508360011415610ed8576001546040517f72e0b74a0000000000000000000000000000000000000000000000000000000081526001600160a01b0380881660048301526024820186905260448201859052606482018490528881166084830152879216906372e0b74a9060a401600060405180830381600087803b158015610eba57600080fd5b505af1158015610ece573d6000803e3d6000fd5b5050505050610f5d565b83610f5d576001546040517fab1569c1000000000000000000000000000000000000000000000000000000008152600481018590526001600160a01b0388811660248301529091169063ab1569c190604401600060405180830381600087803b158015610f4457600080fd5b505af1158015610f58573d6000803e3d6000fd5b505050505b6040517f68f46c45a243a0e9065a97649faf9a5afe1692f2679e650c2f853b9cd734cc0e90600090a1505050505050505050505050565b828054610fa09061134d565b90600052602060002090601f016020900481019282610fc25760008555611008565b82601f10610fdb5782800160ff19823516178555611008565b82800160010185558215611008579182015b82811115611008578235825591602001919060010190610fed565b50611014929150611018565b5090565b5b808211156110145760008155600101611019565b60008083601f84011261103f57600080fd5b50813567ffffffffffffffff81111561105757600080fd5b60208301915083602082850101111561106f57600080fd5b9250929050565b60008060008060008060008060008060c08b8d03121561109557600080fd5b8a35995060208b013567ffffffffffffffff808211156110b457600080fd5b6110c08e838f0161102d565b909b50995060408d01359150808211156110d957600080fd5b6110e58e838f0161102d565b909950975060608d01359150808211156110fe57600080fd5b61110a8e838f0161102d565b909750955060808d013591508082111561112357600080fd5b506111308d828e0161102d565b9150809450508092505060a08b013590509295989b9194979a5092959850565b600060208083528351808285015260005b8181101561117d57858101830151858201604001528201611161565b8181111561118f576000604083870101525b50601f01601f1916929092016040019392505050565b60008060008060008060006080888a0312156111c057600080fd5b87359650602088013567ffffffffffffffff808211156111df57600080fd5b6111eb8b838c0161102d565b909850965060408a013591508082111561120457600080fd5b6112108b838c0161102d565b909650945060608a013591508082111561122957600080fd5b506112368a828b0161102d565b989b979a50959850939692959293505050565b6001600160a01b038116811461125e57600080fd5b50565b60006020828403121561127357600080fd5b813561127e81611249565b9392505050565b8183823760009101908152919050565b81835281816020850137506000828201602090810191909152601f909101601f19169091010190565b89815260c0602082015260006112d860c083018a8c611295565b82810360408401526112eb81898b611295565b90508660608401528281036080840152611306818688611295565b9150508260a08301529a9950505050505050505050565b8051801515811461132d57600080fd5b919050565b60006020828403121561134457600080fd5b61127e8261131d565b600181811c9082168061136157607f821691505b6020821081141561138257634e487b7160e01b600052602260045260246000fd5b50919050565b8681526080602082015260006113a2608083018789611295565b82810360408401526113b5818688611295565b915050826060830152979650505050505050565b600080604083850312156113dc57600080fd5b82356113e781611249565b946020939093013593505050565b602081526000611409602083018486611295565b949350505050565b60006020828403121561142357600080fd5b815161127e81611249565b805161132d81611249565b600060e0828403121561144b57600080fd5b60405160e0810181811067ffffffffffffffff8211171561147c57634e487b7160e01b600052604160045260246000fd5b6040528251815261148f6020840161142e565b602082015260408301516040820152606083015160608201526114b46080840161142e565b608082015260a083015160a08201526114cf60c0840161131d565b60c08201529392505050565b6000602082840312156114ed57600080fd5b5051919050565b60008282101561151457634e487b7160e01b600052601160045260246000fd5b500390565b60008060008060008060c0878903121561153257600080fd5b863561153d81611249565b9550602087013561154d81611249565b95989597505050506040840135936060810135936080820135935060a090910135915056fea2646970667358221220fdc79ebb2631e97ae20daa74553063801a22554754d2b3b8e1e93e522657734464736f6c63430008090033",
  "linkReferences": {},
  "deployedLinkReferences": {}
}