{
  "_format": "hh-sol-artifact-1",
  "contractName": "MessageSender",
  "sourceName": "contracts/MessageSender.sol",
  "abi": [
    {
      "inputs": [
        {
          "internalType": "address",
          "name": "_gateway",
          "type": "address"
        },
        {
          "internalType": "address",
          "name": "_gasReceiver",
          "type": "address"
        }
      ],
      "stateMutability": "nonpayable",
      "type": "constructor"
    },
    {
      "inputs": [
        {
          "internalType": "string",
          "name": "destinationChain",
          "type": "string"
        },
        {
          "internalType": "string",
          "name": "destinationAddress",
          "type": "string"
        },
        {
          "internalType": "string",
          "name": "symbol",
          "type": "string"
        },
        {
          "internalType": "uint256",
          "name": "amount",
          "type": "uint256"
        },
        {
          "internalType": "uint256",
          "name": "itemId",
          "type": "uint256"
        }
      ],
      "name": "crossChainBuy",
      "outputs": [],
      "stateMutability": "payable",
      "type": "function"
    },
    {
      "inputs": [
        {
          "internalType": "string",
          "name": "destinationChain",
          "type": "string"
        },
        {
          "internalType": "string",
          "name": "destinationAddress",
          "type": "string"
        },
        {
          "internalType": "uint256",
          "name": "tokenId",
          "type": "uint256"
        }
      ],
      "name": "crossChainDelist",
      "outputs": [],
      "stateMutability": "payable",
      "type": "function"
    },
    {
      "inputs": [
        {
          "internalType": "string",
          "name": "destinationChain",
          "type": "string"
        },
        {
          "internalType": "string",
          "name": "destinationAddress",
          "type": "string"
        },
        {
          "internalType": "address",
          "name": "nftAddress",
          "type": "address"
        },
        {
          "internalType": "uint256",
          "name": "tokenId",
          "type": "uint256"
        },
        {
          "internalType": "uint256",
          "name": "amount",
          "type": "uint256"
        },
        {
          "internalType": "uint256",
          "name": "listExpiry",
          "type": "uint256"
        },
        {
          "internalType": "uint256",
          "name": "sigExpiry",
          "type": "uint256"
        },
        {
          "internalType": "bytes",
          "name": "signature",
          "type": "bytes"
        }
      ],
      "name": "crossChainList",
      "outputs": [],
      "stateMutability": "payable",
      "type": "function"
    },
    {
      "inputs": [
        {
          "internalType": "string",
          "name": "destinationChain",
          "type": "string"
        },
        {
          "internalType": "string",
          "name": "destinationAddress",
          "type": "string"
        },
        {
          "internalType": "address",
          "name": "nftAddress",
          "type": "address"
        },
        {
          "internalType": "string",
          "name": "tokenURI",
          "type": "string"
        }
      ],
      "name": "crossChainMint",
      "outputs": [],
      "stateMutability": "payable",
      "type": "function"
    }
  ],
  "bytecode": "0x60c060405234801561001057600080fd5b50604051610fe7380380610fe783398101604081905261002f91610062565b6001600160a01b0391821660a05216608052610095565b80516001600160a01b038116811461005d57600080fd5b919050565b6000806040838503121561007557600080fd5b61007e83610046565b915061008c60208401610046565b90509250929050565b60805160a051610ef66100f16000396000818161017401528181610302015281816103ac015281816105060152818161067b01526107db01526000818160e701528181610275015281816105bb015261073a0152610ef66000f3fe60806040526004361061003f5760003560e01c80632f2fdcef1461004457806336c3450b14610059578063d78886bc1461006c578063f4b7fa5d1461007f575b600080fd5b6100576100523660046108c9565b610092565b005b610057610067366004610978565b6101ed565b61005761007a3660046109ec565b610379565b61005761008d366004610a95565b6106fc565b60003384600260008060008089896040516020016100b899989796959493929190610b93565b60408051601f198184030181529190529050341561015d57604051630c93e3bb60e01b81526001600160a01b037f00000000000000000000000000000000000000000000000000000000000000001690630c93e3bb90349061012a9030908d908d908d908d908a903390600401610c5c565b6000604051808303818588803b15801561014357600080fd5b505af1158015610157573d6000803e3d6000fd5b50505050505b604051631c92115f60e01b81526001600160a01b037f00000000000000000000000000000000000000000000000000000000000000001690631c92115f906101b1908b908b908b908b908890600401610cbf565b600060405180830381600087803b1580156101cb57600080fd5b505af11580156101df573d6000803e3d6000fd5b505050505050505050505050565b604080513360208201526000918101829052606081018290526080810183905260a0810182905260c0810182905260e0810182905261012061010082018190526101408083018490529082015261016081018290526101800160408051601f19818403018152919052905034156102eb57604051630c93e3bb60e01b81526001600160a01b037f00000000000000000000000000000000000000000000000000000000000000001690630c93e3bb9034906102b89030908b908b908b908b908a903390600401610c5c565b6000604051808303818588803b1580156102d157600080fd5b505af11580156102e5573d6000803e3d6000fd5b50505050505b604051631c92115f60e01b81526001600160a01b037f00000000000000000000000000000000000000000000000000000000000000001690631c92115f9061033f9089908990899089908890600401610cbf565b600060405180830381600087803b15801561035957600080fd5b505af115801561036d573d6000803e3d6000fd5b50505050505050505050565b6040517f935b13f60000000000000000000000000000000000000000000000000000000081526000906001600160a01b037f0000000000000000000000000000000000000000000000000000000000000000169063935b13f6906103e39088908890600401610d06565b60206040518083038186803b1580156103fb57600080fd5b505afa15801561040f573d6000803e3d6000fd5b505050506040513d601f19601f820116820180604052508101906104339190610d22565b6040517f23b872dd000000000000000000000000000000000000000000000000000000008152336004820152306024820152604481018590529091506001600160a01b038216906323b872dd90606401602060405180830381600087803b15801561049d57600080fd5b505af11580156104b1573d6000803e3d6000fd5b505050506040513d601f19601f820116820180604052508101906104d59190610d46565b506040517f095ea7b30000000000000000000000000000000000000000000000000000000081526001600160a01b037f0000000000000000000000000000000000000000000000000000000000000000811660048301526024820185905282169063095ea7b390604401602060405180830381600087803b15801561055957600080fd5b505af115801561056d573d6000803e3d6000fd5b505050506040513d601f19601f820116820180604052508101906105919190610d46565b50604080513360208201528082018490528151808203830181526060909101909152341561064b577f00000000000000000000000000000000000000000000000000000000000000006001600160a01b031663c62c200234308d8d8d8d888e8e8e336040518c63ffffffff1660e01b81526004016106189a99989796959493929190610d68565b6000604051808303818588803b15801561063157600080fd5b505af1158015610645573d6000803e3d6000fd5b50505050505b6040517fb54170840000000000000000000000000000000000000000000000000000000081526001600160a01b037f0000000000000000000000000000000000000000000000000000000000000000169063b5417084906106be908d908d908d908d9088908e908e908e90600401610de8565b600060405180830381600087803b1580156106d857600080fd5b505af11580156106ec573d6000803e3d6000fd5b5050505050505050505050505050565b60003388600189898989898960405160200161072099989796959493929190610e4e565b60408051601f19818403018152919052905034156107c4577f00000000000000000000000000000000000000000000000000000000000000006001600160a01b0316630c93e3bb34308f8f8f8f88336040518963ffffffff1660e01b81526004016107919796959493929190610c5c565b6000604051808303818588803b1580156107aa57600080fd5b505af11580156107be573d6000803e3d6000fd5b50505050505b604051631c92115f60e01b81526001600160a01b037f00000000000000000000000000000000000000000000000000000000000000001690631c92115f90610818908f908f908f908f908890600401610cbf565b600060405180830381600087803b15801561083257600080fd5b505af1158015610846573d6000803e3d6000fd5b50505050505050505050505050505050565b60008083601f84011261086a57600080fd5b50813567ffffffffffffffff81111561088257600080fd5b60208301915083602082850101111561089a57600080fd5b9250929050565b6001600160a01b03811681146108b657600080fd5b50565b80356108c4816108a1565b919050565b60008060008060008060006080888a0312156108e457600080fd5b873567ffffffffffffffff808211156108fc57600080fd5b6109088b838c01610858565b909950975060208a013591508082111561092157600080fd5b61092d8b838c01610858565b909750955060408a01359150610942826108a1565b9093506060890135908082111561095857600080fd5b506109658a828b01610858565b989b979a50959850939692959293505050565b60008060008060006060868803121561099057600080fd5b853567ffffffffffffffff808211156109a857600080fd5b6109b489838a01610858565b909750955060208801359150808211156109cd57600080fd5b506109da88828901610858565b96999598509660400135949350505050565b60008060008060008060008060a0898b031215610a0857600080fd5b883567ffffffffffffffff80821115610a2057600080fd5b610a2c8c838d01610858565b909a50985060208b0135915080821115610a4557600080fd5b610a518c838d01610858565b909850965060408b0135915080821115610a6a57600080fd5b50610a778b828c01610858565b999c989b509699959896976060870135966080013595509350505050565b60008060008060008060008060008060006101008c8e031215610ab757600080fd5b67ffffffffffffffff808d351115610ace57600080fd5b610adb8e8e358f01610858565b909c509a5060208d0135811015610af157600080fd5b610b018e60208f01358f01610858565b909a509850610b1260408e016108b9565b975060608d0135965060808d0135955060a08d0135945060c08d013593508060e08e01351115610b4157600080fd5b50610b528d60e08e01358e01610858565b81935080925050509295989b509295989b9093969950565b81835281816020850137506000828201602090810191909152601f909101601f19169091010190565b60006101206001600160a01b03808d168452808c1660208501525060ff8a16604084015260ff8916606084015260ff8816608084015260ff871660a084015260ff861660c08401528060e08401526000818401525061014080610100840152610bff8184018587610b6a565b9c9b505050505050505050505050565b6000815180845260005b81811015610c3557602081850181015186830182015201610c19565b81811115610c47576000602083870101525b50601f01601f19169290920160200192915050565b60006001600160a01b03808a16835260a06020840152610c8060a08401898b610b6a565b8381036040850152610c9381888a610b6a565b90508381036060850152610ca78187610c0f565b92505080841660808401525098975050505050505050565b606081526000610cd3606083018789610b6a565b8281036020840152610ce6818688610b6a565b90508281036040840152610cfa8185610c0f565b98975050505050505050565b602081526000610d1a602083018486610b6a565b949350505050565b600060208284031215610d3457600080fd5b8151610d3f816108a1565b9392505050565b600060208284031215610d5857600080fd5b81518015158114610d3f57600080fd5b60006001600160a01b03808d16835260e06020840152610d8c60e084018c8e610b6a565b8381036040850152610d9f818b8d610b6a565b90508381036060850152610db3818a610c0f565b90508381036080850152610dc881888a610b6a565b60a0850196909652509290921660c0909101525098975050505050505050565b60a081526000610dfc60a083018a8c610b6a565b8281036020840152610e0f81898b610b6a565b90508281036040840152610e238188610c0f565b90508281036060840152610e38818688610b6a565b9150508260808301529998505050505050505050565b60006101206001600160a01b03808d168452808c1660208501525060ff8a1660408401528860608401528760808401528660a08401528560c08401528060e0840152610e9d8184018587610b6a565b83810361010090940193909352505060008152602001999850505050505050505056fea264697066735822122037e363dbba6a4cd01659efd32d22dd90ae4ea6d62fc712d6b7a078cbf1daaf6564736f6c63430008090033",
  "linkReferences": {},
  "deployedLinkReferences": {}
}