{
  "_format": "hh-sol-artifact-1",
  "contractName": "NFTMarketplaceV2",
  "sourceName": "contracts/NFTMarketplaceV2.sol",
  "abi": [
    {
      "inputs": [
        {
          "internalType": "uint256",
          "name": "_feePercent",
          "type": "uint256"
        },
        {
          "internalType": "address",
          "name": "_operator",
          "type": "address"
        },
        {
          "internalType": "address",
          "name": "_receivingToken",
          "type": "address"
        }
      ],
      "stateMutability": "nonpayable",
      "type": "constructor"
    },
    {
      "anonymous": false,
      "inputs": [
        {
          "indexed": false,
          "internalType": "uint256",
          "name": "itemId",
          "type": "uint256"
        },
        {
          "indexed": true,
          "internalType": "address",
          "name": "nft",
          "type": "address"
        },
        {
          "indexed": false,
          "internalType": "uint256",
          "name": "tokenId",
          "type": "uint256"
        },
        {
          "indexed": false,
          "internalType": "uint256",
          "name": "price",
          "type": "uint256"
        },
        {
          "indexed": true,
          "internalType": "address",
          "name": "seller",
          "type": "address"
        },
        {
          "indexed": true,
          "internalType": "address",
          "name": "buyer",
          "type": "address"
        }
      ],
      "name": "Bought",
      "type": "event"
    },
    {
      "anonymous": false,
      "inputs": [
        {
          "indexed": false,
          "internalType": "uint256",
          "name": "itemId",
          "type": "uint256"
        },
        {
          "indexed": false,
          "internalType": "uint256",
          "name": "delistOn",
          "type": "uint256"
        }
      ],
      "name": "Delist",
      "type": "event"
    },
    {
      "anonymous": false,
      "inputs": [
        {
          "indexed": false,
          "internalType": "uint256",
          "name": "itemId",
          "type": "uint256"
        },
        {
          "indexed": true,
          "internalType": "address",
          "name": "nft",
          "type": "address"
        },
        {
          "indexed": false,
          "internalType": "uint256",
          "name": "tokenId",
          "type": "uint256"
        },
        {
          "indexed": false,
          "internalType": "uint256",
          "name": "price",
          "type": "uint256"
        },
        {
          "indexed": true,
          "internalType": "address",
          "name": "seller",
          "type": "address"
        },
        {
          "indexed": false,
          "internalType": "uint256",
          "name": "expiryOn",
          "type": "uint256"
        }
      ],
      "name": "Offered",
      "type": "event"
    },
    {
      "inputs": [
        {
          "internalType": "uint256",
          "name": "_itemId",
          "type": "uint256"
        },
        {
          "internalType": "address",
          "name": "_seller",
          "type": "address"
        }
      ],
      "name": "crossDelistItem",
      "outputs": [],
      "stateMutability": "nonpayable",
      "type": "function"
    },
    {
      "inputs": [
        {
          "internalType": "contract IERC721",
          "name": "_nft",
          "type": "address"
        },
        {
          "internalType": "uint256",
          "name": "_tokenId",
          "type": "uint256"
        },
        {
          "internalType": "uint256",
          "name": "_price",
          "type": "uint256"
        },
        {
          "internalType": "uint256",
          "name": "_expiryOn",
          "type": "uint256"
        },
        {
          "internalType": "address",
          "name": "_seller",
          "type": "address"
        }
      ],
      "name": "crossMakeItem",
      "outputs": [],
      "stateMutability": "nonpayable",
      "type": "function"
    },
    {
      "inputs": [
        {
          "internalType": "uint256",
          "name": "_itemId",
          "type": "uint256"
        },
        {
          "internalType": "address",
          "name": "_buyer",
          "type": "address"
        }
      ],
      "name": "crossPurchaseItem",
      "outputs": [],
      "stateMutability": "nonpayable",
      "type": "function"
    },
    {
      "inputs": [
        {
          "internalType": "uint256",
          "name": "_itemId",
          "type": "uint256"
        }
      ],
      "name": "delistItem",
      "outputs": [],
      "stateMutability": "nonpayable",
      "type": "function"
    },
    {
      "inputs": [],
      "name": "feeAccount",
      "outputs": [
        {
          "internalType": "address payable",
          "name": "",
          "type": "address"
        }
      ],
      "stateMutability": "view",
      "type": "function"
    },
    {
      "inputs": [],
      "name": "feePercent",
      "outputs": [
        {
          "internalType": "uint256",
          "name": "",
          "type": "uint256"
        }
      ],
      "stateMutability": "view",
      "type": "function"
    },
    {
      "inputs": [],
      "name": "getAllListedNFTs",
      "outputs": [
        {
          "components": [
            {
              "internalType": "uint256",
              "name": "itemId",
              "type": "uint256"
            },
            {
              "internalType": "contract IERC721",
              "name": "nft",
              "type": "address"
            },
            {
              "internalType": "uint256",
              "name": "tokenId",
              "type": "uint256"
            },
            {
              "internalType": "uint256",
              "name": "price",
              "type": "uint256"
            },
            {
              "internalType": "address payable",
              "name": "seller",
              "type": "address"
            },
            {
              "internalType": "uint256",
              "name": "expiryOn",
              "type": "uint256"
            },
            {
              "internalType": "bool",
              "name": "sold",
              "type": "bool"
            }
          ],
          "internalType": "struct NFTMarketplaceV2.Item[]",
          "name": "",
          "type": "tuple[]"
        }
      ],
      "stateMutability": "view",
      "type": "function"
    },
    {
      "inputs": [
        {
          "internalType": "address",
          "name": "holder",
          "type": "address"
        }
      ],
      "name": "getHolderListedNFTs",
      "outputs": [
        {
          "components": [
            {
              "internalType": "uint256",
              "name": "itemId",
              "type": "uint256"
            },
            {
              "internalType": "contract IERC721",
              "name": "nft",
              "type": "address"
            },
            {
              "internalType": "uint256",
              "name": "tokenId",
              "type": "uint256"
            },
            {
              "internalType": "uint256",
              "name": "price",
              "type": "uint256"
            },
            {
              "internalType": "address payable",
              "name": "seller",
              "type": "address"
            },
            {
              "internalType": "uint256",
              "name": "expiryOn",
              "type": "uint256"
            },
            {
              "internalType": "bool",
              "name": "sold",
              "type": "bool"
            }
          ],
          "internalType": "struct NFTMarketplaceV2.Item[]",
          "name": "",
          "type": "tuple[]"
        }
      ],
      "stateMutability": "view",
      "type": "function"
    },
    {
      "inputs": [],
      "name": "getItemCount",
      "outputs": [
        {
          "internalType": "uint256",
          "name": "",
          "type": "uint256"
        }
      ],
      "stateMutability": "view",
      "type": "function"
    },
    {
      "inputs": [
        {
          "internalType": "uint256",
          "name": "_itemId",
          "type": "uint256"
        }
      ],
      "name": "getListedItem",
      "outputs": [
        {
          "components": [
            {
              "internalType": "uint256",
              "name": "itemId",
              "type": "uint256"
            },
            {
              "internalType": "contract IERC721",
              "name": "nft",
              "type": "address"
            },
            {
              "internalType": "uint256",
              "name": "tokenId",
              "type": "uint256"
            },
            {
              "internalType": "uint256",
              "name": "price",
              "type": "uint256"
            },
            {
              "internalType": "address payable",
              "name": "seller",
              "type": "address"
            },
            {
              "internalType": "uint256",
              "name": "expiryOn",
              "type": "uint256"
            },
            {
              "internalType": "bool",
              "name": "sold",
              "type": "bool"
            }
          ],
          "internalType": "struct NFTMarketplaceV2.Item",
          "name": "",
          "type": "tuple"
        }
      ],
      "stateMutability": "view",
      "type": "function"
    },
    {
      "inputs": [],
      "name": "getMarketplaceFee",
      "outputs": [
        {
          "internalType": "uint256",
          "name": "",
          "type": "uint256"
        }
      ],
      "stateMutability": "view",
      "type": "function"
    },
    {
      "inputs": [],
      "name": "getOperator",
      "outputs": [
        {
          "internalType": "address",
          "name": "",
          "type": "address"
        }
      ],
      "stateMutability": "view",
      "type": "function"
    },
    {
      "inputs": [],
      "name": "getOwner",
      "outputs": [
        {
          "internalType": "address",
          "name": "",
          "type": "address"
        }
      ],
      "stateMutability": "view",
      "type": "function"
    },
    {
      "inputs": [
        {
          "internalType": "uint256",
          "name": "_itemId",
          "type": "uint256"
        }
      ],
      "name": "getTotalPrice",
      "outputs": [
        {
          "internalType": "uint256",
          "name": "",
          "type": "uint256"
        }
      ],
      "stateMutability": "view",
      "type": "function"
    },
    {
      "inputs": [],
      "name": "itemCount",
      "outputs": [
        {
          "internalType": "uint256",
          "name": "",
          "type": "uint256"
        }
      ],
      "stateMutability": "view",
      "type": "function"
    },
    {
      "inputs": [
        {
          "internalType": "uint256",
          "name": "",
          "type": "uint256"
        }
      ],
      "name": "items",
      "outputs": [
        {
          "internalType": "uint256",
          "name": "itemId",
          "type": "uint256"
        },
        {
          "internalType": "contract IERC721",
          "name": "nft",
          "type": "address"
        },
        {
          "internalType": "uint256",
          "name": "tokenId",
          "type": "uint256"
        },
        {
          "internalType": "uint256",
          "name": "price",
          "type": "uint256"
        },
        {
          "internalType": "address payable",
          "name": "seller",
          "type": "address"
        },
        {
          "internalType": "uint256",
          "name": "expiryOn",
          "type": "uint256"
        },
        {
          "internalType": "bool",
          "name": "sold",
          "type": "bool"
        }
      ],
      "stateMutability": "view",
      "type": "function"
    },
    {
      "inputs": [
        {
          "internalType": "contract IERC721",
          "name": "_nft",
          "type": "address"
        },
        {
          "internalType": "uint256",
          "name": "_tokenId",
          "type": "uint256"
        },
        {
          "internalType": "uint256",
          "name": "_price",
          "type": "uint256"
        },
        {
          "internalType": "uint256",
          "name": "_expiryOn",
          "type": "uint256"
        }
      ],
      "name": "makeItem",
      "outputs": [],
      "stateMutability": "nonpayable",
      "type": "function"
    },
    {
      "inputs": [
        {
          "internalType": "uint256",
          "name": "_itemId",
          "type": "uint256"
        }
      ],
      "name": "purchaseItem",
      "outputs": [],
      "stateMutability": "nonpayable",
      "type": "function"
    },
    {
      "inputs": [
        {
          "internalType": "uint256",
          "name": "_newFee",
          "type": "uint256"
        }
      ],
      "name": "updateMarketplaceFee",
      "outputs": [],
      "stateMutability": "nonpayable",
      "type": "function"
    },
    {
      "inputs": [
        {
          "internalType": "address",
          "name": "_operator",
          "type": "address"
        }
      ],
      "name": "updateOperator",
      "outputs": [],
      "stateMutability": "nonpayable",
      "type": "function"
    }
  ],
  "bytecode": "0x60a06040523480156200001157600080fd5b5060405162001c3838038062001c38833981016040819052620000349162000091565b600160008190553360805260029390935582546001600160a01b03199081166001600160a01b0393841617909355600480549093169116179055620000d2565b80516001600160a01b03811681146200008c57600080fd5b919050565b600080600060608486031215620000a757600080fd5b83519250620000b96020850162000074565b9150620000c96040850162000074565b90509250925092565b608051611b2e6200010a600039600081816101e10152818161027d015281816105d801528181610b8301526111b80152611b2e6000f3fe608060405234801561001057600080fd5b506004361061016c5760003560e01c80637749cf23116100cd578063bfb231d211610081578063cfeb07a111610066578063cfeb07a114610378578063d38ea5bf1461038b578063e7f43c681461039e57600080fd5b8063bfb231d2146102c7578063ca7dd3751461036557600080fd5b8063893d20e8116100b2578063893d20e81461027b578063ab1569c1146102a1578063ac7475ed146102b457600080fd5b80637749cf231461026a5780637fd6f15c1461027257600080fd5b806365e17c9d116101245780636bfb0d01116101095780636bfb0d011461022e57806372e0b74a146102375780637655abc81461024a57600080fd5b806365e17c9d146101dc578063696aae081461021b57600080fd5b806326a7b37b1161015557806326a7b37b146101af57806330eb80cd146101c15780634b58ffaa146101d457600080fd5b8063100616311461017157806316f1123014610186575b600080fd5b61018461017f3660046117c8565b6103af565b005b6101996101943660046117f9565b61041e565b6040516101a69190611816565b60405180910390f35b6002545b6040519081526020016101a6565b6101846101cf3660046117c8565b6105d6565b6101996106ca565b6102037f000000000000000000000000000000000000000000000000000000000000000081565b6040516001600160a01b0390911681526020016101a6565b6101846102293660046118b4565b610866565b6101b360035481565b6101846102453660046118ef565b6108d6565b61025d6102583660046117c8565b610953565b6040516101a69190611945565b6003546101b3565b6101b360025481565b7f0000000000000000000000000000000000000000000000000000000000000000610203565b6101846102af3660046119a3565b610a9c565b6101846102c23660046117f9565b610b81565b6103216102d53660046117c8565b6005602081905260009182526040909120805460018201546002830154600384015460048501549585015460069095015493956001600160a01b03938416959294919316919060ff1687565b604080519788526001600160a01b0396871660208901528701949094526060860192909252909216608084015260a0830191909152151560c082015260e0016101a6565b6101b36103733660046117c8565b610c33565b6101846103863660046119a3565b610c72565b6101846103993660046117c8565b610dc7565b6001546001600160a01b0316610203565b600260005414156104075760405162461bcd60e51b815260206004820152601f60248201527f5265656e7472616e637947756172643a207265656e7472616e742063616c6c0060448201526064015b60405180910390fd5b60026000556104168133611378565b506001600055565b6060600060035467ffffffffffffffff81111561043d5761043d6119d3565b6040519080825280602002602001820160405280156104c257816020015b6104af6040518060e001604052806000815260200160006001600160a01b03168152602001600081526020016000815260200160006001600160a01b03168152602001600081526020016000151581525090565b81526020019060019003908161045b5790505b5090506000805b6003548110156105cd5760006104e08260016119ff565b6000818152600560208190526040909120908101549192509042108015610516575060048101546001600160a01b038881169116145b80156105275750600681015460ff16155b156105ab576040805160e0810182528254815260018301546001600160a01b0390811660208301526002840154928201929092526003830154606082015260048301549091166080820152600582015460a0820152600682015460ff16151560c0820152855186908690811061059f5761059f611a17565b60200260200101819052505b6105b66001856119ff565b9350505080806105c590611a2d565b9150506104c9565b50909392505050565b7f00000000000000000000000000000000000000000000000000000000000000006001600160a01b0316331461064e5760405162461bcd60e51b815260206004820152601e60248201527f4f6e6c79206f776e65722063616e20757064617465206f70657261746f72000060448201526064016103fe565b60648111156106c55760405162461bcd60e51b815260206004820152603660248201527f496e76616c6964206d61726b6574706c6163652066656520286d75737420626560448201527f20696e206265747765656e206f6620307e31303025290000000000000000000060648201526084016103fe565b600255565b6060600060035467ffffffffffffffff8111156106e9576106e96119d3565b60405190808252806020026020018201604052801561076e57816020015b61075b6040518060e001604052806000815260200160006001600160a01b03168152602001600081526020016000815260200160006001600160a01b03168152602001600081526020016000151581525090565b8152602001906001900390816107075790505b5090506000805b60035481101561085e57600061078c8260016119ff565b60008181526005602081905260409091209081015491925090421080156107b85750600681015460ff16155b1561083c576040805160e0810182528254815260018301546001600160a01b0390811660208301526002840154928201929092526003830154606082015260048301549091166080820152600582015460a0820152600682015460ff16151560c0820152855186908690811061083057610830611a17565b60200260200101819052505b6108476001856119ff565b93505050808061085690611a2d565b915050610775565b509092915050565b600260005414156108b95760405162461bcd60e51b815260206004820152601f60248201527f5265656e7472616e637947756172643a207265656e7472616e742063616c6c0060448201526064016103fe565b60026000556108cb848484843361143c565b505060016000555050565b6001546001600160a01b0316331461093f5760405162461bcd60e51b815260206004820152602660248201527f4f6e6c79206f70657261746f722063616e2061636365737320746869732066756044820152653731ba34b7b760d11b60648201526084016103fe565b61094c858585858561143c565b5050505050565b6109a76040518060e001604052806000815260200160006001600160a01b03168152602001600081526020016000815260200160006001600160a01b03168152602001600081526020016000151581525090565b600082815260056020818152604092839020835160e0810185528154815260018201546001600160a01b039081169382019390935260028201549481019490945260038101546060850152600481015490911660808401529081015460a08301819052600682015460ff16151560c084015290919042108015610a2f5750600682015460ff16155b15610a9557506040805160e0810182528254815260018301546001600160a01b0390811660208301526002840154928201929092526003830154606082015260048301549091166080820152600582015460a0820152600682015460ff16151560c08201525b9392505050565b60008281526005602052604090206001546001600160a01b03163314610b135760405162461bcd60e51b815260206004820152602660248201527f4f6e6c79206f70657261746f722063616e2061636365737320746869732066756044820152653731ba34b7b760d11b60648201526084016103fe565b60048101546001600160a01b03838116911614610b725760405162461bcd60e51b815260206004820152601a60248201527f4f6e6c79206f776e65722063616e2064656c697374206974656d00000000000060448201526064016103fe565b610b7c8383611378565b505050565b7f00000000000000000000000000000000000000000000000000000000000000006001600160a01b03163314610bf95760405162461bcd60e51b815260206004820152601e60248201527f4f6e6c79206f776e65722063616e20757064617465206f70657261746f72000060448201526064016103fe565b600180547fffffffffffffffffffffffff0000000000000000000000000000000000000000166001600160a01b0392909216919091179055565b600060646002546064610c4691906119ff565b600084815260056020526040902060030154610c629190611a48565b610c6c9190611a67565b92915050565b6001546001600160a01b03163314610cdb5760405162461bcd60e51b815260206004820152602660248201527f4f6e6c79206f70657261746f722063616e2061636365737320746869732066756044820152653731ba34b7b760d11b60648201526084016103fe565b600082815260056020526040908190206001810154600282015492516323b872dd60e01b81523060048201526001600160a01b0385811660248301526044820194909452919216906323b872dd90606401600060405180830381600087803b158015610d4657600080fd5b505af1158015610d5a573d6000803e3d6000fd5b5050505060048101546001820154600283015460038401546040805188815260208101939093528201526001600160a01b038581169381169216907f8b4c9c8a607d67b321582dd8461041b1dc2ceeca70c8b7f37f8e02095cf2e76d9060600160405180910390a4505050565b60026000541415610e1a5760405162461bcd60e51b815260206004820152601f60248201527f5265656e7472616e637947756172643a207265656e7472616e742063616c6c0060448201526064016103fe565b60026000908155610e2a82610c33565b60008381526005602052604090209091508215801590610e4c57506003548311155b610e985760405162461bcd60e51b815260206004820152601260248201527f6974656d20646f65736e2774206578697374000000000000000000000000000060448201526064016103fe565b600681015460ff1615610eed5760405162461bcd60e51b815260206004820152601160248201527f6974656d20616c726561647920736f6c6400000000000000000000000000000060448201526064016103fe565b42816005015411610f405760405162461bcd60e51b815260206004820152601460248201527f6974656d206c697374696e67206578706972656400000000000000000000000060448201526064016103fe565b600480546040517fdd62ed3e00000000000000000000000000000000000000000000000000000000815233928101929092523060248301526001600160a01b031690600090829063dd62ed3e9060440160206040518083038186803b158015610fa857600080fd5b505afa158015610fbc573d6000803e3d6000fd5b505050506040513d601f19601f82011682018060405250810190610fe09190611a89565b9050600081116110325760405162461bcd60e51b815260206004820152601b60248201527f496e73756666696369656e74207573646320616c6c6f77616e6365000000000060448201526064016103fe565b6040517f70a0823100000000000000000000000000000000000000000000000000000000815233600482015284906001600160a01b038416906370a082319060240160206040518083038186803b15801561108c57600080fd5b505afa1580156110a0573d6000803e3d6000fd5b505050506040513d601f19601f820116820180604052508101906110c49190611a89565b10156111125760405162461bcd60e51b815260206004820152601460248201527f496e73756666696369656e74207061796d656e7400000000000000000000000060448201526064016103fe565b60048381015460038501546040516323b872dd60e01b815233938101939093526001600160a01b03918216602484015260448301528316906323b872dd90606401602060405180830381600087803b15801561116d57600080fd5b505af1158015611181573d6000803e3d6000fd5b505050506040513d601f19601f820116820180604052508101906111a59190611aa2565b50816001600160a01b03166323b872dd337f00000000000000000000000000000000000000000000000000000000000000008660030154886111e79190611ac4565b6040517fffffffff0000000000000000000000000000000000000000000000000000000060e086901b1681526001600160a01b0393841660048201529290911660248301526044820152606401602060405180830381600087803b15801561124e57600080fd5b505af1158015611262573d6000803e3d6000fd5b505050506040513d601f19601f820116820180604052508101906112869190611aa2565b5060068301805460ff1916600190811790915583015460028401546040516323b872dd60e01b815230600482015233602482015260448101919091526001600160a01b03909116906323b872dd90606401600060405180830381600087803b1580156112f157600080fd5b505af1158015611305573d6000803e3d6000fd5b505050506004830154600184015460028501546003860154604080518a8152602081019390935282015233926001600160a01b039081169216907f8b4c9c8a607d67b321582dd8461041b1dc2ceeca70c8b7f37f8e02095cf2e76d9060600160405180910390a450506001600055505050565b600082815260056020526040902060048101546001600160a01b038381169116146113f55760405162461bcd60e51b815260206004820152602760248201527f4f6e6c79206e6674206f776e65722063616e20616363657373207468697320666044820152663ab731ba34b7b760c91b60648201526084016103fe565b42600582018190556040805185815260208101929092527f4eaf8c9c71859ab58ed3353f9029475cea0ae1e0e017c6897edc072c6796c656910160405180910390a1505050565b6040517f6352211e000000000000000000000000000000000000000000000000000000008152600481018590526001600160a01b038083169190871690636352211e9060240160206040518083038186803b15801561149a57600080fd5b505afa1580156114ae573d6000803e3d6000fd5b505050506040513d601f19601f820116820180604052508101906114d29190611adb565b6001600160a01b0316146115385760405162461bcd60e51b815260206004820152602760248201527f4f6e6c79206e6674206f776e65722063616e20616363657373207468697320666044820152663ab731ba34b7b760c91b60648201526084016103fe565b600083116115885760405162461bcd60e51b815260206004820152601f60248201527f5072696365206d7573742062652067726561746572207468616e207a65726f0060448201526064016103fe565b4282116115d75760405162461bcd60e51b815260206004820152601360248201527f496e76616c6964206578706972792074696d650000000000000000000000000060448201526064016103fe565b600380549060006115e783611a2d565b90915550506040516323b872dd60e01b81526001600160a01b038281166004830152306024830152604482018690528616906323b872dd90606401600060405180830381600087803b15801561163c57600080fd5b505af1158015611650573d6000803e3d6000fd5b505050506040518060e001604052806003548152602001866001600160a01b03168152602001858152602001848152602001826001600160a01b03168152602001838152602001600015158152506005600060035481526020019081526020016000206000820151816000015560208201518160010160006101000a8154816001600160a01b0302191690836001600160a01b03160217905550604082015181600201556060820151816003015560808201518160040160006101000a8154816001600160a01b0302191690836001600160a01b0316021790555060a0820151816005015560c08201518160060160006101000a81548160ff021916908315150217905550905050806001600160a01b0316856001600160a01b03167f68691bf1ff4da1d17e26d154d655adee05f2c30e99638bfce346224ffd4909956003548787876040516117b9949392919093845260208401929092526040830152606082015260800190565b60405180910390a35050505050565b6000602082840312156117da57600080fd5b5035919050565b6001600160a01b03811681146117f657600080fd5b50565b60006020828403121561180b57600080fd5b8135610a95816117e1565b6020808252825182820181905260009190848201906040850190845b818110156118a8576118958385518051825260208101516001600160a01b0380821660208501526040830151604085015260608301516060850152806080840151166080850152505060a081015160a083015260c0810151151560c08301525050565b9284019260e09290920191600101611832565b50909695505050505050565b600080600080608085870312156118ca57600080fd5b84356118d5816117e1565b966020860135965060408601359560600135945092505050565b600080600080600060a0868803121561190757600080fd5b8535611912816117e1565b94506020860135935060408601359250606086013591506080860135611937816117e1565b809150509295509295909350565b60e08101610c6c82848051825260208101516001600160a01b0380821660208501526040830151604085015260608301516060850152806080840151166080850152505060a081015160a083015260c0810151151560c08301525050565b600080604083850312156119b657600080fd5b8235915060208301356119c8816117e1565b809150509250929050565b634e487b7160e01b600052604160045260246000fd5b634e487b7160e01b600052601160045260246000fd5b60008219821115611a1257611a126119e9565b500190565b634e487b7160e01b600052603260045260246000fd5b6000600019821415611a4157611a416119e9565b5060010190565b6000816000190483118215151615611a6257611a626119e9565b500290565b600082611a8457634e487b7160e01b600052601260045260246000fd5b500490565b600060208284031215611a9b57600080fd5b5051919050565b600060208284031215611ab457600080fd5b81518015158114610a9557600080fd5b600082821015611ad657611ad66119e9565b500390565b600060208284031215611aed57600080fd5b8151610a95816117e156fea2646970667358221220d9144726a43f06b6223a0453f6ddc59125959a2b4f9ce04925a14ab9afb7b74764736f6c63430008090033",
  "linkReferences": {},
  "deployedLinkReferences": {}
}