{
  "_format": "hh-sol-artifact-1",
  "contractName": "NFTMarketplaceV2",
  "sourceName": "contracts/NFTMarketplaceV2.sol",
  "abi": [
    {
      "inputs": [
        {
          "internalType": "uint256",
          "name": "_feePercent",
          "type": "uint256"
        },
        {
          "internalType": "address",
          "name": "_operator",
          "type": "address"
        },
        {
          "internalType": "address",
          "name": "_receivingToken",
          "type": "address"
        }
      ],
      "stateMutability": "nonpayable",
      "type": "constructor"
    },
    {
      "anonymous": false,
      "inputs": [
        {
          "indexed": false,
          "internalType": "uint256",
          "name": "itemId",
          "type": "uint256"
        },
        {
          "indexed": true,
          "internalType": "address",
          "name": "nft",
          "type": "address"
        },
        {
          "indexed": false,
          "internalType": "uint256",
          "name": "tokenId",
          "type": "uint256"
        },
        {
          "indexed": false,
          "internalType": "uint256",
          "name": "price",
          "type": "uint256"
        },
        {
          "indexed": true,
          "internalType": "address",
          "name": "seller",
          "type": "address"
        },
        {
          "indexed": true,
          "internalType": "address",
          "name": "buyer",
          "type": "address"
        }
      ],
      "name": "Bought",
      "type": "event"
    },
    {
      "anonymous": false,
      "inputs": [
        {
          "indexed": false,
          "internalType": "uint256",
          "name": "itemId",
          "type": "uint256"
        },
        {
          "indexed": false,
          "internalType": "uint256",
          "name": "delistOn",
          "type": "uint256"
        }
      ],
      "name": "Delist",
      "type": "event"
    },
    {
      "anonymous": false,
      "inputs": [
        {
          "indexed": false,
          "internalType": "uint256",
          "name": "itemId",
          "type": "uint256"
        },
        {
          "indexed": true,
          "internalType": "address",
          "name": "nft",
          "type": "address"
        },
        {
          "indexed": false,
          "internalType": "uint256",
          "name": "tokenId",
          "type": "uint256"
        },
        {
          "indexed": false,
          "internalType": "uint256",
          "name": "price",
          "type": "uint256"
        },
        {
          "indexed": true,
          "internalType": "address",
          "name": "seller",
          "type": "address"
        },
        {
          "indexed": false,
          "internalType": "uint256",
          "name": "expiryOn",
          "type": "uint256"
        }
      ],
      "name": "Offered",
      "type": "event"
    },
    {
      "inputs": [
        {
          "internalType": "uint256",
          "name": "_itemId",
          "type": "uint256"
        },
        {
          "internalType": "address",
          "name": "_seller",
          "type": "address"
        }
      ],
      "name": "crossDelistItem",
      "outputs": [],
      "stateMutability": "nonpayable",
      "type": "function"
    },
    {
      "inputs": [
        {
          "internalType": "address",
          "name": "_nft",
          "type": "address"
        },
        {
          "internalType": "uint256",
          "name": "_tokenId",
          "type": "uint256"
        },
        {
          "internalType": "uint256",
          "name": "_price",
          "type": "uint256"
        },
        {
          "internalType": "uint256",
          "name": "_expiryOn",
          "type": "uint256"
        },
        {
          "internalType": "address",
          "name": "_seller",
          "type": "address"
        },
        {
          "internalType": "uint256",
          "name": "sigExpiry",
          "type": "uint256"
        },
        {
          "internalType": "bytes",
          "name": "signature",
          "type": "bytes"
        }
      ],
      "name": "crossMakeItem",
      "outputs": [],
      "stateMutability": "nonpayable",
      "type": "function"
    },
    {
      "inputs": [
        {
          "internalType": "uint256",
          "name": "_itemId",
          "type": "uint256"
        },
        {
          "internalType": "address",
          "name": "_buyer",
          "type": "address"
        }
      ],
      "name": "crossPurchaseItem",
      "outputs": [],
      "stateMutability": "nonpayable",
      "type": "function"
    },
    {
      "inputs": [
        {
          "internalType": "uint256",
          "name": "_itemId",
          "type": "uint256"
        }
      ],
      "name": "delistItem",
      "outputs": [],
      "stateMutability": "nonpayable",
      "type": "function"
    },
    {
      "inputs": [],
      "name": "feeAccount",
      "outputs": [
        {
          "internalType": "address payable",
          "name": "",
          "type": "address"
        }
      ],
      "stateMutability": "view",
      "type": "function"
    },
    {
      "inputs": [],
      "name": "feePercent",
      "outputs": [
        {
          "internalType": "uint256",
          "name": "",
          "type": "uint256"
        }
      ],
      "stateMutability": "view",
      "type": "function"
    },
    {
      "inputs": [],
      "name": "getAllListedNFTs",
      "outputs": [
        {
          "components": [
            {
              "internalType": "uint256",
              "name": "itemId",
              "type": "uint256"
            },
            {
              "internalType": "address",
              "name": "nft",
              "type": "address"
            },
            {
              "internalType": "uint256",
              "name": "tokenId",
              "type": "uint256"
            },
            {
              "internalType": "uint256",
              "name": "price",
              "type": "uint256"
            },
            {
              "internalType": "address payable",
              "name": "seller",
              "type": "address"
            },
            {
              "internalType": "uint256",
              "name": "expiryOn",
              "type": "uint256"
            },
            {
              "internalType": "bool",
              "name": "sold",
              "type": "bool"
            }
          ],
          "internalType": "struct NFTMarketplaceV2.Item[]",
          "name": "",
          "type": "tuple[]"
        }
      ],
      "stateMutability": "view",
      "type": "function"
    },
    {
      "inputs": [
        {
          "internalType": "address",
          "name": "holder",
          "type": "address"
        }
      ],
      "name": "getHolderListedNFTs",
      "outputs": [
        {
          "components": [
            {
              "internalType": "uint256",
              "name": "itemId",
              "type": "uint256"
            },
            {
              "internalType": "address",
              "name": "nft",
              "type": "address"
            },
            {
              "internalType": "uint256",
              "name": "tokenId",
              "type": "uint256"
            },
            {
              "internalType": "uint256",
              "name": "price",
              "type": "uint256"
            },
            {
              "internalType": "address payable",
              "name": "seller",
              "type": "address"
            },
            {
              "internalType": "uint256",
              "name": "expiryOn",
              "type": "uint256"
            },
            {
              "internalType": "bool",
              "name": "sold",
              "type": "bool"
            }
          ],
          "internalType": "struct NFTMarketplaceV2.Item[]",
          "name": "",
          "type": "tuple[]"
        }
      ],
      "stateMutability": "view",
      "type": "function"
    },
    {
      "inputs": [],
      "name": "getItemCount",
      "outputs": [
        {
          "internalType": "uint256",
          "name": "",
          "type": "uint256"
        }
      ],
      "stateMutability": "view",
      "type": "function"
    },
    {
      "inputs": [
        {
          "internalType": "uint256",
          "name": "_itemId",
          "type": "uint256"
        }
      ],
      "name": "getListedItem",
      "outputs": [
        {
          "components": [
            {
              "internalType": "uint256",
              "name": "itemId",
              "type": "uint256"
            },
            {
              "internalType": "address",
              "name": "nft",
              "type": "address"
            },
            {
              "internalType": "uint256",
              "name": "tokenId",
              "type": "uint256"
            },
            {
              "internalType": "uint256",
              "name": "price",
              "type": "uint256"
            },
            {
              "internalType": "address payable",
              "name": "seller",
              "type": "address"
            },
            {
              "internalType": "uint256",
              "name": "expiryOn",
              "type": "uint256"
            },
            {
              "internalType": "bool",
              "name": "sold",
              "type": "bool"
            }
          ],
          "internalType": "struct NFTMarketplaceV2.Item",
          "name": "",
          "type": "tuple"
        }
      ],
      "stateMutability": "view",
      "type": "function"
    },
    {
      "inputs": [],
      "name": "getMarketplaceFee",
      "outputs": [
        {
          "internalType": "uint256",
          "name": "",
          "type": "uint256"
        }
      ],
      "stateMutability": "view",
      "type": "function"
    },
    {
      "inputs": [],
      "name": "getOperator",
      "outputs": [
        {
          "internalType": "address",
          "name": "",
          "type": "address"
        }
      ],
      "stateMutability": "view",
      "type": "function"
    },
    {
      "inputs": [],
      "name": "getOwner",
      "outputs": [
        {
          "internalType": "address",
          "name": "",
          "type": "address"
        }
      ],
      "stateMutability": "view",
      "type": "function"
    },
    {
      "inputs": [
        {
          "internalType": "uint256",
          "name": "_itemId",
          "type": "uint256"
        }
      ],
      "name": "getTotalPrice",
      "outputs": [
        {
          "internalType": "uint256",
          "name": "",
          "type": "uint256"
        }
      ],
      "stateMutability": "view",
      "type": "function"
    },
    {
      "inputs": [],
      "name": "itemCount",
      "outputs": [
        {
          "internalType": "uint256",
          "name": "",
          "type": "uint256"
        }
      ],
      "stateMutability": "view",
      "type": "function"
    },
    {
      "inputs": [
        {
          "internalType": "uint256",
          "name": "",
          "type": "uint256"
        }
      ],
      "name": "items",
      "outputs": [
        {
          "internalType": "uint256",
          "name": "itemId",
          "type": "uint256"
        },
        {
          "internalType": "address",
          "name": "nft",
          "type": "address"
        },
        {
          "internalType": "uint256",
          "name": "tokenId",
          "type": "uint256"
        },
        {
          "internalType": "uint256",
          "name": "price",
          "type": "uint256"
        },
        {
          "internalType": "address payable",
          "name": "seller",
          "type": "address"
        },
        {
          "internalType": "uint256",
          "name": "expiryOn",
          "type": "uint256"
        },
        {
          "internalType": "bool",
          "name": "sold",
          "type": "bool"
        }
      ],
      "stateMutability": "view",
      "type": "function"
    },
    {
      "inputs": [
        {
          "internalType": "address",
          "name": "_nft",
          "type": "address"
        },
        {
          "internalType": "uint256",
          "name": "_tokenId",
          "type": "uint256"
        },
        {
          "internalType": "uint256",
          "name": "_price",
          "type": "uint256"
        },
        {
          "internalType": "uint256",
          "name": "_expiryOn",
          "type": "uint256"
        },
        {
          "internalType": "uint256",
          "name": "sigExpiry",
          "type": "uint256"
        },
        {
          "internalType": "bytes",
          "name": "signature",
          "type": "bytes"
        }
      ],
      "name": "makeItem",
      "outputs": [],
      "stateMutability": "nonpayable",
      "type": "function"
    },
    {
      "inputs": [
        {
          "internalType": "uint256",
          "name": "_itemId",
          "type": "uint256"
        }
      ],
      "name": "purchaseItem",
      "outputs": [],
      "stateMutability": "nonpayable",
      "type": "function"
    },
    {
      "inputs": [
        {
          "internalType": "uint256",
          "name": "_newFee",
          "type": "uint256"
        }
      ],
      "name": "updateMarketplaceFee",
      "outputs": [],
      "stateMutability": "nonpayable",
      "type": "function"
    },
    {
      "inputs": [
        {
          "internalType": "address",
          "name": "_operator",
          "type": "address"
        }
      ],
      "name": "updateOperator",
      "outputs": [],
      "stateMutability": "nonpayable",
      "type": "function"
    }
  ],
  "bytecode": "0x60a06040523480156200001157600080fd5b5060405162001ea238038062001ea2833981016040819052620000349162000091565b600160008190553360805260029390935582546001600160a01b03199081166001600160a01b0393841617909355600480549093169116179055620000d2565b80516001600160a01b03811681146200008c57600080fd5b919050565b600080600060608486031215620000a757600080fd5b83519250620000b96020850162000074565b9150620000c96040850162000074565b90509250925092565b608051611d986200010a600039600081816101f40152818161026a0152818161058801528181610a9f01526111770152611d986000f3fe608060405234801561001057600080fd5b506004361061016c5760003560e01c80637fd6f15c116100cd578063c0281ba711610081578063cfeb07a111610066578063cfeb07a114610378578063d38ea5bf1461038b578063e7f43c681461039e57600080fd5b8063c0281ba714610352578063ca7dd3751461036557600080fd5b8063ab1569c1116100b2578063ab1569c11461028e578063ac7475ed146102a1578063bfb231d2146102b457600080fd5b80637fd6f15c1461025f578063893d20e81461026857600080fd5b806360898d25116101245780636bfb0d01116101095780636bfb0d011461022e5780637655abc8146102375780637749cf231461025757600080fd5b806360898d25146101dc57806365e17c9d146101ef57600080fd5b806326a7b37b1161015557806326a7b37b146101af57806330eb80cd146101c15780634b58ffaa146101d457600080fd5b8063100616311461017157806316f1123014610186575b600080fd5b61018461017f3660046118bb565b6103af565b005b6101996101943660046118e9565b6103ce565b6040516101a69190611906565b60405180910390f35b6002545b6040519081526020016101a6565b6101846101cf3660046118bb565b610586565b61019961067f565b6101846101ea366004611a47565b61081b565b6102167f000000000000000000000000000000000000000000000000000000000000000081565b6040516001600160a01b0390911681526020016101a6565b6101b360035481565b61024a6102453660046118bb565b61089c565b6040516101a69190611ad0565b6003546101b3565b6101b360025481565b7f0000000000000000000000000000000000000000000000000000000000000000610216565b61018461029c366004611b2e565b6109ba565b6101846102af3660046118e9565b610a9d565b61030e6102c23660046118bb565b6005602081905260009182526040909120805460018201546002830154600384015460048501549585015460069095015493956001600160a01b03938416959294919316919060ff1687565b604080519788526001600160a01b0396871660208901528701949094526060860192909252909216608084015260a0830191909152151560c082015260e0016101a6565b610184610360366004611b5e565b610b4f565b6101b36103733660046118bb565b610b66565b610184610386366004611b2e565b610ba5565b6101846103993660046118bb565b610da1565b6001546001600160a01b0316610216565b6103b7611358565b6103c181336113b2565b6103cb6001600055565b50565b6060600060035467ffffffffffffffff8111156103ed576103ed6119a4565b60405190808252806020026020018201604052801561047257816020015b61045f6040518060e001604052806000815260200160006001600160a01b03168152602001600081526020016000815260200160006001600160a01b03168152602001600081526020016000151581525090565b81526020019060019003908161040b5790505b5090506000805b60035481101561057d576000610490826001611be9565b60008181526005602081905260409091209081015491925090421080156104c6575060048101546001600160a01b038881169116145b80156104d75750600681015460ff16155b1561055b576040805160e0810182528254815260018301546001600160a01b0390811660208301526002840154928201929092526003830154606082015260048301549091166080820152600582015460a0820152600682015460ff16151560c0820152855186908690811061054f5761054f611c01565b60200260200101819052505b610566600185611be9565b93505050808061057590611c17565b915050610479565b50909392505050565b7f00000000000000000000000000000000000000000000000000000000000000006001600160a01b031633146106035760405162461bcd60e51b815260206004820152601e60248201527f4f6e6c79206f776e65722063616e20757064617465206f70657261746f72000060448201526064015b60405180910390fd5b606481111561067a5760405162461bcd60e51b815260206004820152603660248201527f496e76616c6964206d61726b6574706c6163652066656520286d75737420626560448201527f20696e206265747765656e206f6620307e31303025290000000000000000000060648201526084016105fa565b600255565b6060600060035467ffffffffffffffff81111561069e5761069e6119a4565b60405190808252806020026020018201604052801561072357816020015b6107106040518060e001604052806000815260200160006001600160a01b03168152602001600081526020016000815260200160006001600160a01b03168152602001600081526020016000151581525090565b8152602001906001900390816106bc5790505b5090506000805b600354811015610813576000610741826001611be9565b600081815260056020819052604090912090810154919250904210801561076d5750600681015460ff16155b156107f1576040805160e0810182528254815260018301546001600160a01b0390811660208301526002840154928201929092526003830154606082015260048301549091166080820152600582015460a0820152600682015460ff16151560c082015285518690869081106107e5576107e5611c01565b60200260200101819052505b6107fc600185611be9565b93505050808061080b90611c17565b91505061072a565b509092915050565b6001546001600160a01b031633146108845760405162461bcd60e51b815260206004820152602660248201527f4f6e6c79206f70657261746f722063616e2061636365737320746869732066756044820152653731ba34b7b760d11b60648201526084016105fa565b61089387878787878787611513565b50505050505050565b6108f06040518060e001604052806000815260200160006001600160a01b03168152602001600081526020016000815260200160006001600160a01b03168152602001600081526020016000151581525090565b6000828152600560209081526040808320815160e081018352848152928301849052908201839052606082018390526080820183905260a0820183905260c082019290925242826005015411801561094d5750600682015460ff16155b156109b357506040805160e0810182528254815260018301546001600160a01b0390811660208301526002840154928201929092526003830154606082015260048301549091166080820152600582015460a0820152600682015460ff16151560c08201525b9392505050565b6001546001600160a01b03163314610a235760405162461bcd60e51b815260206004820152602660248201527f4f6e6c79206f70657261746f722063616e2061636365737320746869732066756044820152653731ba34b7b760d11b60648201526084016105fa565b6000828152600560205260409020600401546001600160a01b03828116911614610a8f5760405162461bcd60e51b815260206004820152601a60248201527f4f6e6c79206f776e65722063616e2064656c697374206974656d00000000000060448201526064016105fa565b610a9982826113b2565b5050565b7f00000000000000000000000000000000000000000000000000000000000000006001600160a01b03163314610b155760405162461bcd60e51b815260206004820152601e60248201527f4f6e6c79206f776e65722063616e20757064617465206f70657261746f72000060448201526064016105fa565b600180547fffffffffffffffffffffffff0000000000000000000000000000000000000000166001600160a01b0392909216919091179055565b610b5e86868686338787611513565b505050505050565b600060646002546064610b799190611be9565b600084815260056020526040902060030154610b959190611c32565b610b9f9190611c51565b92915050565b6001546001600160a01b03163314610c0e5760405162461bcd60e51b815260206004820152602660248201527f4f6e6c79206f70657261746f722063616e2061636365737320746869732066756044820152653731ba34b7b760d11b60648201526084016105fa565b60008281526005602052604090819020600181015460029091015491517f095ea7b30000000000000000000000000000000000000000000000000000000081526001600160a01b0384811660048301526024820193909352911690819063095ea7b390604401600060405180830381600087803b158015610c8e57600080fd5b505af1158015610ca2573d6000803e3d6000fd5b505050600084815260056020526040908190206002015490516323b872dd60e01b81523060048201526001600160a01b038581166024830152604482019290925290831691506323b872dd90606401600060405180830381600087803b158015610d0b57600080fd5b505af1158015610d1f573d6000803e3d6000fd5b50505060008481526005602090815260409182902060048101546001820154600283015460039093015485518a815294850193909352938301919091526001600160a01b0386811694509081169216907f8b4c9c8a607d67b321582dd8461041b1dc2ceeca70c8b7f37f8e02095cf2e76d9060600160405180910390a4505050565b610da9611358565b6000610db482610b66565b9050600082118015610dc857506003548211155b610e145760405162461bcd60e51b815260206004820152601260248201527f6974656d20646f65736e2774206578697374000000000000000000000000000060448201526064016105fa565b60008281526005602052604090206006015460ff1615610e765760405162461bcd60e51b815260206004820152601160248201527f6974656d20616c726561647920736f6c6400000000000000000000000000000060448201526064016105fa565b600082815260056020819052604090912001544210610ed75760405162461bcd60e51b815260206004820152601460248201527f6974656d206c697374696e67206578706972656400000000000000000000000060448201526064016105fa565b600480546040517fdd62ed3e00000000000000000000000000000000000000000000000000000000815233928101929092523060248301526001600160a01b031690600090829063dd62ed3e9060440160206040518083038186803b158015610f3f57600080fd5b505afa158015610f53573d6000803e3d6000fd5b505050506040513d601f19601f82011682018060405250810190610f779190611c73565b905060008111610fc95760405162461bcd60e51b815260206004820152601b60248201527f496e73756666696369656e74207573646320616c6c6f77616e6365000000000060448201526064016105fa565b6040517f70a0823100000000000000000000000000000000000000000000000000000000815233600482015283906001600160a01b038416906370a082319060240160206040518083038186803b15801561102357600080fd5b505afa158015611037573d6000803e3d6000fd5b505050506040513d601f19601f8201168201806040525081019061105b9190611c73565b10156110a95760405162461bcd60e51b815260206004820152601460248201527f496e73756666696369656e74207061796d656e7400000000000000000000000060448201526064016105fa565b6000848152600560205260409081902060048082015460039092015492516323b872dd60e01b815233918101919091526001600160a01b03918216602482015260448101929092528316906323b872dd90606401602060405180830381600087803b15801561111757600080fd5b505af115801561112b573d6000803e3d6000fd5b505050506040513d601f19601f8201168201806040525081019061114f9190611c8c565b506000848152600560205260409020600301546001600160a01b038316906323b872dd9033907f0000000000000000000000000000000000000000000000000000000000000000906111a19088611cae565b6040517fffffffff0000000000000000000000000000000000000000000000000000000060e086901b1681526001600160a01b0393841660048201529290911660248301526044820152606401602060405180830381600087803b15801561120857600080fd5b505af115801561121c573d6000803e3d6000fd5b505050506040513d601f19601f820116820180604052508101906112409190611c8c565b506000848152600560205260409081902060068101805460ff1916600190811790915581015460029091015491516323b872dd60e01b815230600482015233602482015260448101929092526001600160a01b03169081906323b872dd90606401600060405180830381600087803b1580156112bb57600080fd5b505af11580156112cf573d6000803e3d6000fd5b50505060008681526005602090815260409182902060048101546001820154600283015460039093015485518c815294850193909352938301919091523393506001600160a01b039081169216907f8b4c9c8a607d67b321582dd8461041b1dc2ceeca70c8b7f37f8e02095cf2e76d9060600160405180910390a4505050506103cb6001600055565b600260005414156113ab5760405162461bcd60e51b815260206004820152601f60248201527f5265656e7472616e637947756172643a207265656e7472616e742063616c6c0060448201526064016105fa565b6002600055565b6000828152600560205260409020600401546001600160a01b0382811691161461142e5760405162461bcd60e51b815260206004820152602760248201527f4f6e6c79206e6674206f776e65722063616e20616363657373207468697320666044820152663ab731ba34b7b760c91b60648201526084016105fa565b6000828152600560208190526040918290204291810191909155600181015460048083015460029093015493516323b872dd60e01b815230918101919091526001600160a01b0392831660248201526044810193909352169081906323b872dd90606401600060405180830381600087803b1580156114ac57600080fd5b505af11580156114c0573d6000803e3d6000fd5b505050600084815260056020818152604092839020909101548251878152918201527f4eaf8c9c71859ab58ed3353f9029475cea0ae1e0e017c6897edc072c6796c65692500160405180910390a1505050565b6040517f6352211e0000000000000000000000000000000000000000000000000000000081526004810187905287906001600160a01b038581169190831690636352211e9060240160206040518083038186803b15801561157357600080fd5b505afa158015611587573d6000803e3d6000fd5b505050506040513d601f19601f820116820180604052508101906115ab9190611cc5565b6001600160a01b0316146116115760405162461bcd60e51b815260206004820152602760248201527f4f6e6c79206e6674206f776e65722063616e20616363657373207468697320666044820152663ab731ba34b7b760c91b60648201526084016105fa565b600086116116615760405162461bcd60e51b815260206004820152601f60248201527f5072696365206d7573742062652067726561746572207468616e207a65726f0060448201526064016105fa565b4285116116b05760405162461bcd60e51b815260206004820152601360248201527f496e76616c6964206578706972792074696d650000000000000000000000000060448201526064016105fa565b600380549060006116c083611c17565b90915550506040517f16ff724b0000000000000000000000000000000000000000000000000000000081526001600160a01b038216906316ff724b9061171290879030908c9089908990600401611ce2565b600060405180830381600087803b15801561172c57600080fd5b505af1158015611740573d6000803e3d6000fd5b505050506040518060e001604052806003548152602001896001600160a01b03168152602001888152602001878152602001856001600160a01b03168152602001868152602001600015158152506005600060035481526020019081526020016000206000820151816000015560208201518160010160006101000a8154816001600160a01b0302191690836001600160a01b03160217905550604082015181600201556060820151816003015560808201518160040160006101000a8154816001600160a01b0302191690836001600160a01b0316021790555060a0820151816005015560c08201518160060160006101000a81548160ff021916908315150217905550905050836001600160a01b0316886001600160a01b03167f68691bf1ff4da1d17e26d154d655adee05f2c30e99638bfce346224ffd4909956003548a8a8a6040516118a9949392919093845260208401929092526040830152606082015260800190565b60405180910390a35050505050505050565b6000602082840312156118cd57600080fd5b5035919050565b6001600160a01b03811681146103cb57600080fd5b6000602082840312156118fb57600080fd5b81356109b3816118d4565b6020808252825182820181905260009190848201906040850190845b81811015611998576119858385518051825260208101516001600160a01b0380821660208501526040830151604085015260608301516060850152806080840151166080850152505060a081015160a083015260c0810151151560c08301525050565b9284019260e09290920191600101611922565b50909695505050505050565b634e487b7160e01b600052604160045260246000fd5b600082601f8301126119cb57600080fd5b813567ffffffffffffffff808211156119e6576119e66119a4565b604051601f8301601f19908116603f01168101908282118183101715611a0e57611a0e6119a4565b81604052838152866020858801011115611a2757600080fd5b836020870160208301376000602085830101528094505050505092915050565b600080600080600080600060e0888a031215611a6257600080fd5b8735611a6d816118d4565b96506020880135955060408801359450606088013593506080880135611a92816118d4565b925060a0880135915060c088013567ffffffffffffffff811115611ab557600080fd5b611ac18a828b016119ba565b91505092959891949750929550565b60e08101610b9f82848051825260208101516001600160a01b0380821660208501526040830151604085015260608301516060850152806080840151166080850152505060a081015160a083015260c0810151151560c08301525050565b60008060408385031215611b4157600080fd5b823591506020830135611b53816118d4565b809150509250929050565b60008060008060008060c08789031215611b7757600080fd5b8635611b82816118d4565b95506020870135945060408701359350606087013592506080870135915060a087013567ffffffffffffffff811115611bba57600080fd5b611bc689828a016119ba565b9150509295509295509295565b634e487b7160e01b600052601160045260246000fd5b60008219821115611bfc57611bfc611bd3565b500190565b634e487b7160e01b600052603260045260246000fd5b6000600019821415611c2b57611c2b611bd3565b5060010190565b6000816000190483118215151615611c4c57611c4c611bd3565b500290565b600082611c6e57634e487b7160e01b600052601260045260246000fd5b500490565b600060208284031215611c8557600080fd5b5051919050565b600060208284031215611c9e57600080fd5b815180151581146109b357600080fd5b600082821015611cc057611cc0611bd3565b500390565b600060208284031215611cd757600080fd5b81516109b3816118d4565b60006001600160a01b03808816835260208188168185015286604085015285606085015260a06080850152845191508160a085015260005b82811015611d365785810182015185820160c001528101611d1a565b82811115611d4857600060c084870101525b5050601f01601f19169190910160c001969550505050505056fea264697066735822122065e0905b795bd4eaa187a835c948148155d66957bea680bbb0d01cf35760f3aa64736f6c63430008090033",
  "linkReferences": {},
  "deployedLinkReferences": {}
}