{
  "_format": "hh-sol-artifact-1",
  "contractName": "OneNFT",
  "sourceName": "contracts/OneNft.sol",
  "abi": [
    {
      "inputs": [
        {
          "internalType": "string",
          "name": "name",
          "type": "string"
        },
        {
          "internalType": "string",
          "name": "symbol",
          "type": "string"
        }
      ],
      "stateMutability": "nonpayable",
      "type": "constructor"
    },
    {
      "anonymous": false,
      "inputs": [
        {
          "indexed": true,
          "internalType": "address",
          "name": "owner",
          "type": "address"
        },
        {
          "indexed": true,
          "internalType": "address",
          "name": "approved",
          "type": "address"
        },
        {
          "indexed": true,
          "internalType": "uint256",
          "name": "tokenId",
          "type": "uint256"
        }
      ],
      "name": "Approval",
      "type": "event"
    },
    {
      "anonymous": false,
      "inputs": [
        {
          "indexed": true,
          "internalType": "address",
          "name": "owner",
          "type": "address"
        },
        {
          "indexed": true,
          "internalType": "address",
          "name": "operator",
          "type": "address"
        },
        {
          "indexed": false,
          "internalType": "bool",
          "name": "approved",
          "type": "bool"
        }
      ],
      "name": "ApprovalForAll",
      "type": "event"
    },
    {
      "anonymous": false,
      "inputs": [
        {
          "indexed": true,
          "internalType": "address",
          "name": "from",
          "type": "address"
        },
        {
          "indexed": true,
          "internalType": "address",
          "name": "to",
          "type": "address"
        },
        {
          "indexed": true,
          "internalType": "uint256",
          "name": "tokenId",
          "type": "uint256"
        }
      ],
      "name": "Transfer",
      "type": "event"
    },
    {
      "inputs": [],
      "name": "DOMAIN_SEPARATOR",
      "outputs": [
        {
          "internalType": "bytes32",
          "name": "",
          "type": "bytes32"
        }
      ],
      "stateMutability": "view",
      "type": "function"
    },
    {
      "inputs": [],
      "name": "GetAllNftOwnerAddress",
      "outputs": [
        {
          "internalType": "address[]",
          "name": "",
          "type": "address[]"
        }
      ],
      "stateMutability": "view",
      "type": "function"
    },
    {
      "inputs": [
        {
          "internalType": "address",
          "name": "holder",
          "type": "address"
        }
      ],
      "name": "GetHolderNfts",
      "outputs": [
        {
          "internalType": "uint256[]",
          "name": "",
          "type": "uint256[]"
        }
      ],
      "stateMutability": "view",
      "type": "function"
    },
    {
      "inputs": [
        {
          "internalType": "address",
          "name": "to",
          "type": "address"
        },
        {
          "internalType": "uint256",
          "name": "tokenId",
          "type": "uint256"
        }
      ],
      "name": "approve",
      "outputs": [],
      "stateMutability": "nonpayable",
      "type": "function"
    },
    {
      "inputs": [
        {
          "internalType": "address",
          "name": "owner",
          "type": "address"
        }
      ],
      "name": "balanceOf",
      "outputs": [
        {
          "internalType": "uint256",
          "name": "",
          "type": "uint256"
        }
      ],
      "stateMutability": "view",
      "type": "function"
    },
    {
      "inputs": [
        {
          "internalType": "uint256",
          "name": "tokenId",
          "type": "uint256"
        }
      ],
      "name": "getApproved",
      "outputs": [
        {
          "internalType": "address",
          "name": "",
          "type": "address"
        }
      ],
      "stateMutability": "view",
      "type": "function"
    },
    {
      "inputs": [],
      "name": "getCurrentId",
      "outputs": [
        {
          "internalType": "uint256",
          "name": "",
          "type": "uint256"
        }
      ],
      "stateMutability": "view",
      "type": "function"
    },
    {
      "inputs": [
        {
          "internalType": "address",
          "name": "owner",
          "type": "address"
        },
        {
          "internalType": "address",
          "name": "operator",
          "type": "address"
        }
      ],
      "name": "isApprovedForAll",
      "outputs": [
        {
          "internalType": "bool",
          "name": "",
          "type": "bool"
        }
      ],
      "stateMutability": "view",
      "type": "function"
    },
    {
      "inputs": [
        {
          "internalType": "string",
          "name": "_tokenURI",
          "type": "string"
        }
      ],
      "name": "mint",
      "outputs": [
        {
          "internalType": "uint256",
          "name": "",
          "type": "uint256"
        }
      ],
      "stateMutability": "nonpayable",
      "type": "function"
    },
    {
      "inputs": [
        {
          "internalType": "address",
          "name": "receiver",
          "type": "address"
        },
        {
          "internalType": "string",
          "name": "_tokenURI",
          "type": "string"
        }
      ],
      "name": "mintTo",
      "outputs": [
        {
          "internalType": "uint256",
          "name": "",
          "type": "uint256"
        }
      ],
      "stateMutability": "nonpayable",
      "type": "function"
    },
    {
      "inputs": [],
      "name": "name",
      "outputs": [
        {
          "internalType": "string",
          "name": "",
          "type": "string"
        }
      ],
      "stateMutability": "view",
      "type": "function"
    },
    {
      "inputs": [
        {
          "internalType": "uint256",
          "name": "tokenId",
          "type": "uint256"
        }
      ],
      "name": "nonces",
      "outputs": [
        {
          "internalType": "uint256",
          "name": "",
          "type": "uint256"
        }
      ],
      "stateMutability": "view",
      "type": "function"
    },
    {
      "inputs": [
        {
          "internalType": "uint256",
          "name": "tokenId",
          "type": "uint256"
        }
      ],
      "name": "ownerOf",
      "outputs": [
        {
          "internalType": "address",
          "name": "",
          "type": "address"
        }
      ],
      "stateMutability": "view",
      "type": "function"
    },
    {
      "inputs": [
        {
          "internalType": "address",
          "name": "spender",
          "type": "address"
        },
        {
          "internalType": "uint256",
          "name": "tokenId",
          "type": "uint256"
        },
        {
          "internalType": "uint256",
          "name": "deadline",
          "type": "uint256"
        },
        {
          "internalType": "bytes",
          "name": "signature",
          "type": "bytes"
        }
      ],
      "name": "permit",
      "outputs": [],
      "stateMutability": "nonpayable",
      "type": "function"
    },
    {
      "inputs": [
        {
          "internalType": "address",
          "name": "from",
          "type": "address"
        },
        {
          "internalType": "address",
          "name": "to",
          "type": "address"
        },
        {
          "internalType": "uint256",
          "name": "tokenId",
          "type": "uint256"
        }
      ],
      "name": "safeTransferFrom",
      "outputs": [],
      "stateMutability": "nonpayable",
      "type": "function"
    },
    {
      "inputs": [
        {
          "internalType": "address",
          "name": "from",
          "type": "address"
        },
        {
          "internalType": "address",
          "name": "to",
          "type": "address"
        },
        {
          "internalType": "uint256",
          "name": "tokenId",
          "type": "uint256"
        },
        {
          "internalType": "bytes",
          "name": "data",
          "type": "bytes"
        }
      ],
      "name": "safeTransferFrom",
      "outputs": [],
      "stateMutability": "nonpayable",
      "type": "function"
    },
    {
      "inputs": [
        {
          "internalType": "address",
          "name": "from",
          "type": "address"
        },
        {
          "internalType": "address",
          "name": "to",
          "type": "address"
        },
        {
          "internalType": "uint256",
          "name": "tokenId",
          "type": "uint256"
        },
        {
          "internalType": "uint256",
          "name": "deadline",
          "type": "uint256"
        },
        {
          "internalType": "bytes",
          "name": "signature",
          "type": "bytes"
        }
      ],
      "name": "safeTransferFromWithPermit",
      "outputs": [],
      "stateMutability": "nonpayable",
      "type": "function"
    },
    {
      "inputs": [
        {
          "internalType": "address",
          "name": "operator",
          "type": "address"
        },
        {
          "internalType": "bool",
          "name": "approved",
          "type": "bool"
        }
      ],
      "name": "setApprovalForAll",
      "outputs": [],
      "stateMutability": "nonpayable",
      "type": "function"
    },
    {
      "inputs": [
        {
          "internalType": "bytes4",
          "name": "interfaceId",
          "type": "bytes4"
        }
      ],
      "name": "supportsInterface",
      "outputs": [
        {
          "internalType": "bool",
          "name": "",
          "type": "bool"
        }
      ],
      "stateMutability": "view",
      "type": "function"
    },
    {
      "inputs": [],
      "name": "symbol",
      "outputs": [
        {
          "internalType": "string",
          "name": "",
          "type": "string"
        }
      ],
      "stateMutability": "view",
      "type": "function"
    },
    {
      "inputs": [
        {
          "internalType": "uint256",
          "name": "tokenId",
          "type": "uint256"
        }
      ],
      "name": "tokenURI",
      "outputs": [
        {
          "internalType": "string",
          "name": "",
          "type": "string"
        }
      ],
      "stateMutability": "view",
      "type": "function"
    },
    {
      "inputs": [
        {
          "internalType": "address",
          "name": "from",
          "type": "address"
        },
        {
          "internalType": "address",
          "name": "to",
          "type": "address"
        },
        {
          "internalType": "uint256",
          "name": "tokenId",
          "type": "uint256"
        }
      ],
      "name": "transferFrom",
      "outputs": [],
      "stateMutability": "nonpayable",
      "type": "function"
    }
  ],
  "bytecode": "0x6101606040527f49ecf333e5b8c95c40fdafc95c1ad136e8914a8fb55e9dc8bb01eaa83a2df9ad610140523480156200003757600080fd5b5060405162002751380380620027518339810160408190526200005a91620002cb565b818181604051806040016040528060018152602001603160f81b815250838381600090805190602001906200009192919062000158565b508051620000a790600190602084019062000158565b5050825160208085019190912083518483012060e08290526101008190524660a0818152604080517f8b73c3c69bb8fe3d512ecc4cf759cc79239f7b179b0ffacaa9a75d522b39400f81880181905281830187905260608201869052608082019490945230818401528151808203909301835260c0019052805194019390932091935091906080523060c052610120525050600880546001600160a01b031916331790555062000372945050505050565b828054620001669062000335565b90600052602060002090601f0160209004810192826200018a5760008555620001d5565b82601f10620001a557805160ff1916838001178555620001d5565b82800160010185558215620001d5579182015b82811115620001d5578251825591602001919060010190620001b8565b50620001e3929150620001e7565b5090565b5b80821115620001e35760008155600101620001e8565b634e487b7160e01b600052604160045260246000fd5b600082601f8301126200022657600080fd5b81516001600160401b0380821115620002435762000243620001fe565b604051601f8301601f19908116603f011681019082821181831017156200026e576200026e620001fe565b816040528381526020925086838588010111156200028b57600080fd5b600091505b83821015620002af578582018301518183018401529082019062000290565b83821115620002c15760008385830101525b9695505050505050565b60008060408385031215620002df57600080fd5b82516001600160401b0380821115620002f757600080fd5b620003058683870162000214565b935060208501519150808211156200031c57600080fd5b506200032b8582860162000214565b9150509250929050565b600181811c908216806200034a57607f821691505b602082108114156200036c57634e487b7160e01b600052602260045260246000fd5b50919050565b60805160a05160c05160e051610100516101205161014051612384620003cd6000396000610fa701526000610ea401526000610ef301526000610ece01526000610e2701526000610e5101526000610e7b01526123846000f3fe608060405234801561001057600080fd5b50600436106101815760003560e01c80636352211e116100d8578063a22cb4651161008c578063d85d3d2711610066578063d85d3d271461030f578063de567ec514610322578063e985e9c51461034257600080fd5b8063a22cb465146102d6578063b88d4fde146102e9578063c87b56dd146102fc57600080fd5b806370a08231116100bd57806370a08231146102a8578063745a41bc146102bb57806395d89b41146102ce57600080fd5b80636352211e1461028d5780636c143862146102a057600080fd5b8063141a468c1161013a5780632a49b23f116101145780632a49b23f1461025d5780633644e5151461027257806342842e0e1461027a57600080fd5b8063141a468c1461022457806316ff724b1461023757806323b872dd1461024a57600080fd5b806306fdde031161016b57806306fdde03146101cf578063081812fc146101e4578063095ea7b31461020f57600080fd5b806275a3171461018657806301ffc9a7146101ac575b600080fd5b610199610194366004611e18565b61037e565b6040519081526020015b60405180910390f35b6101bf6101ba366004611e7c565b6103b6565b60405190151581526020016101a3565b6101d76103fa565b6040516101a39190611ef1565b6101f76101f2366004611f04565b61048c565b6040516001600160a01b0390911681526020016101a3565b61022261021d366004611f1d565b6104b3565b005b610199610232366004611f04565b6105ea565b610222610245366004611f47565b6105fe565b610222610258366004611fb9565b610612565b610265610689565b6040516101a39190611ff5565b61019961073b565b610222610288366004611fb9565b61074a565b6101f761029b366004611f04565b610765565b6101996107ca565b6101996102b6366004612042565b6107d5565b6102226102c936600461205d565b61086f565b6101d7610881565b6102226102e43660046120be565b610890565b6102226102f73660046120fa565b61089f565b6101d761030a366004611f04565b610917565b61019961031d36600461214a565b610a28565b610335610330366004612042565b610a59565b6040516101a3919061217f565b6101bf6103503660046121b7565b6001600160a01b03918216600090815260056020908152604080832093909416825291909152205460ff1690565b600061038e600a80546001019055565b6000610399600a5490565b90506103a58482610b25565b6103af8184610b3f565b9392505050565b60006001600160e01b031982167f5604e2250000000000000000000000000000000000000000000000000000000014806103f457506103f482610be8565b92915050565b606060008054610409906121ea565b80601f0160208091040260200160405190810160405280929190818152602001828054610435906121ea565b80156104825780601f1061045757610100808354040283529160200191610482565b820191906000526020600020905b81548152906001019060200180831161046557829003601f168201915b5050505050905090565b600061049782610c83565b506000908152600460205260409020546001600160a01b031690565b60006104be82610765565b9050806001600160a01b0316836001600160a01b0316141561054d5760405162461bcd60e51b815260206004820152602160248201527f4552433732313a20617070726f76616c20746f2063757272656e74206f776e6560448201527f720000000000000000000000000000000000000000000000000000000000000060648201526084015b60405180910390fd5b336001600160a01b038216148061056957506105698133610350565b6105db5760405162461bcd60e51b815260206004820152603d60248201527f4552433732313a20617070726f76652063616c6c6572206973206e6f7420746f60448201527f6b656e206f776e6572206f7220617070726f76656420666f7220616c6c0000006064820152608401610544565b6105e58383610cea565b505050565b6000818152600660205260408120546103f4565b61060b8585858585610d65565b5050505050565b61061c3382610d7c565b61067e5760405162461bcd60e51b815260206004820152602d60248201527f4552433732313a2063616c6c6572206973206e6f7420746f6b656e206f776e6560448201526c1c881bdc88185c1c1c9bdd9959609a1b6064820152608401610544565b6105e5838383610dfa565b60606000610696600a5490565b905060008167ffffffffffffffff8111156106b3576106b3611d75565b6040519080825280602002602001820160405280156106dc578160200160208202803683370190505b50905060005b82811015610734576106f861029b82600161223b565b82828151811061070a5761070a612253565b6001600160a01b03909216602092830291909101909101528061072c81612269565b9150506106e2565b5092915050565b6000610745610e1a565b905090565b6105e58383836040518060200160405280600081525061089f565b6000818152600260205260408120546001600160a01b0316806103f45760405162461bcd60e51b815260206004820152601860248201527f4552433732313a20696e76616c696420746f6b656e20494400000000000000006044820152606401610544565b6000610745600a5490565b60006001600160a01b0382166108535760405162461bcd60e51b815260206004820152602960248201527f4552433732313a2061646472657373207a65726f206973206e6f74206120766160448201527f6c6964206f776e657200000000000000000000000000000000000000000000006064820152608401610544565b506001600160a01b031660009081526003602052604090205490565b61087b84848484610f41565b50505050565b606060018054610409906121ea565b61089b3383836110ce565b5050565b6108a93383610d7c565b61090b5760405162461bcd60e51b815260206004820152602d60248201527f4552433732313a2063616c6c6572206973206e6f7420746f6b656e206f776e6560448201526c1c881bdc88185c1c1c9bdd9959609a1b6064820152608401610544565b61087b8484848461119d565b606061092282610c83565b6000828152600760205260408120805461093b906121ea565b80601f0160208091040260200160405190810160405280929190818152602001828054610967906121ea565b80156109b45780601f10610989576101008083540402835291602001916109b4565b820191906000526020600020905b81548152906001019060200180831161099757829003601f168201915b5050505050905060006109d260408051602081019091526000815290565b90508051600014156109e5575092915050565b815115610a175780826040516020016109ff929190612284565b60405160208183030381529060405292505050919050565b610a208461121b565b949350505050565b6000610a38600a80546001019055565b6000610a43600a5490565b9050610a4f3382610b25565b6103f48184610b3f565b60606000610a66600a5490565b905060008167ffffffffffffffff811115610a8357610a83611d75565b604051908082528060200260200182016040528015610aac578160200160208202803683370190505b50905060005b82811015610b1d576001600160a01b038516610ad261029b83600161223b565b6001600160a01b03161415610b0b57610aec81600161223b565b828281518110610afe57610afe612253565b6020026020010181815250505b80610b1581612269565b915050610ab2565b509392505050565b61089b82826040518060200160405280600081525061128e565b6000828152600260205260409020546001600160a01b0316610bc95760405162461bcd60e51b815260206004820152602e60248201527f45524337323155524953746f726167653a2055524920736574206f66206e6f6e60448201527f6578697374656e7420746f6b656e0000000000000000000000000000000000006064820152608401610544565b600082815260076020908152604090912082516105e592840190611cc0565b60006001600160e01b031982167f80ac58cd000000000000000000000000000000000000000000000000000000001480610c4b57506001600160e01b031982167f5b5e139f00000000000000000000000000000000000000000000000000000000145b806103f457507f01ffc9a7000000000000000000000000000000000000000000000000000000006001600160e01b03198316146103f4565b6000818152600260205260409020546001600160a01b0316610ce75760405162461bcd60e51b815260206004820152601860248201527f4552433732313a20696e76616c696420746f6b656e20494400000000000000006044820152606401610544565b50565b6000818152600460205260409020805473ffffffffffffffffffffffffffffffffffffffff19166001600160a01b0384169081179091558190610d2c82610765565b6001600160a01b03167f8c5be1e5ebec7d5bd14f71427d1e84f3dd0314c0f7b2291e5b200ac8c7c3b92560405160405180910390a45050565b610d7133848484610f41565b61060b858585610dfa565b600080610d8883610765565b9050806001600160a01b0316846001600160a01b03161480610dcf57506001600160a01b0380821660009081526005602090815260408083209388168352929052205460ff165b80610a205750836001600160a01b0316610de88461048c565b6001600160a01b031614949350505050565b6000818152600660205260409020805460010190556105e583838361130c565b6000306001600160a01b037f000000000000000000000000000000000000000000000000000000000000000016148015610e7357507f000000000000000000000000000000000000000000000000000000000000000046145b15610e9d57507f000000000000000000000000000000000000000000000000000000000000000090565b50604080517f00000000000000000000000000000000000000000000000000000000000000006020808301919091527f0000000000000000000000000000000000000000000000000000000000000000828401527f000000000000000000000000000000000000000000000000000000000000000060608301524660808301523060a0808401919091528351808403909101815260c0909201909252805191012090565b81421115610f915760405162461bcd60e51b815260206004820152601e60248201527f4552433732315065726d69743a206578706972656420646561646c696e6500006044820152606401610544565b60008381526006602090815260408083205481517f0000000000000000000000000000000000000000000000000000000000000000818501526001600160a01b0389168184015260608101889052608081019190915260a08082018790528251808303909101815260c09091019091528051910120906110108261151f565b9050600061101e8285611588565b50905060006001600160a01b0382161580159061104057506110408288610d7c565b9050808061105c575061105c61105588610765565b84876115ce565b8061106e575061106e6110558861048c565b6110ba5760405162461bcd60e51b815260206004820152601f60248201527f4552433732315065726d69743a20696e76616c6964207369676e6174757265006044820152606401610544565b6110c48888610cea565b5050505050505050565b816001600160a01b0316836001600160a01b031614156111305760405162461bcd60e51b815260206004820152601960248201527f4552433732313a20617070726f766520746f2063616c6c6572000000000000006044820152606401610544565b6001600160a01b03838116600081815260056020908152604080832094871680845294825291829020805460ff191686151590811790915591519182527f17307eab39ab6107e8899845ad3d59bd9653f200f220920489ca2b5937696c31910160405180910390a3505050565b6111a8848484610dfa565b6111b4848484846116f2565b61087b5760405162461bcd60e51b815260206004820152603260248201527f4552433732313a207472616e7366657220746f206e6f6e20455243373231526560448201527131b2b4bb32b91034b6b83632b6b2b73a32b960711b6064820152608401610544565b606061122682610c83565b600061123d60408051602081019091526000815290565b9050600081511161125d57604051806020016040528060008152506103af565b806112678461184a565b604051602001611278929190612284565b6040516020818303038152906040529392505050565b61129883836118ec565b6112a560008484846116f2565b6105e55760405162461bcd60e51b815260206004820152603260248201527f4552433732313a207472616e7366657220746f206e6f6e20455243373231526560448201527131b2b4bb32b91034b6b83632b6b2b73a32b960711b6064820152608401610544565b826001600160a01b031661131f82610765565b6001600160a01b0316146113835760405162461bcd60e51b815260206004820152602560248201527f4552433732313a207472616e736665722066726f6d20696e636f72726563742060448201526437bbb732b960d91b6064820152608401610544565b6001600160a01b0382166113fe5760405162461bcd60e51b8152602060048201526024808201527f4552433732313a207472616e7366657220746f20746865207a65726f2061646460448201527f72657373000000000000000000000000000000000000000000000000000000006064820152608401610544565b61140b8383836001611a92565b826001600160a01b031661141e82610765565b6001600160a01b0316146114825760405162461bcd60e51b815260206004820152602560248201527f4552433732313a207472616e736665722066726f6d20696e636f72726563742060448201526437bbb732b960d91b6064820152608401610544565b6000818152600460209081526040808320805473ffffffffffffffffffffffffffffffffffffffff199081169091556001600160a01b0387811680865260038552838620805460001901905590871680865283862080546001019055868652600290945282852080549092168417909155905184937fddf252ad1be2c89b69c2b068fc378daa952ba7f163c4a11628f55a4df523b3ef91a4505050565b60006103f461152c610e1a565b836040517f19010000000000000000000000000000000000000000000000000000000000006020820152602281018390526042810182905260009060620160405160208183030381529060405280519060200120905092915050565b6000808251604114156115bf5760208301516040840151606085015160001a6115b387828585611b1a565b945094505050506115c7565b506000905060025b9250929050565b6000806000856001600160a01b0316631626ba7e60e01b86866040516024016115f89291906122b3565b60408051601f198184030181529181526020820180517bffffffffffffffffffffffffffffffffffffffffffffffffffffffff166001600160e01b031990941693909317909252905161164b91906122cc565b600060405180830381855afa9150503d8060008114611686576040519150601f19603f3d011682016040523d82523d6000602084013e61168b565b606091505b509150915081801561169e575080516020145b80156116e8575080517f1626ba7e00000000000000000000000000000000000000000000000000000000906116dc90830160209081019084016122e8565b6001600160e01b031916145b9695505050505050565b60006001600160a01b0384163b1561183f57604051630a85bd0160e11b81526001600160a01b0385169063150b7a0290611736903390899088908890600401612305565b602060405180830381600087803b15801561175057600080fd5b505af1925050508015611780575060408051601f3d908101601f1916820190925261177d918101906122e8565b60015b611825573d8080156117ae576040519150601f19603f3d011682016040523d82523d6000602084013e6117b3565b606091505b50805161181d5760405162461bcd60e51b815260206004820152603260248201527f4552433732313a207472616e7366657220746f206e6f6e20455243373231526560448201527131b2b4bb32b91034b6b83632b6b2b73a32b960711b6064820152608401610544565b805181602001fd5b6001600160e01b031916630a85bd0160e11b149050610a20565b506001949350505050565b6060600061185783611bde565b600101905060008167ffffffffffffffff81111561187757611877611d75565b6040519080825280601f01601f1916602001820160405280156118a1576020820181803683370190505b5090508181016020015b600019017f3031323334353637383961626364656600000000000000000000000000000000600a86061a8153600a85049450846118e757610b1d565b6118ab565b6001600160a01b0382166119425760405162461bcd60e51b815260206004820181905260248201527f4552433732313a206d696e7420746f20746865207a65726f20616464726573736044820152606401610544565b6000818152600260205260409020546001600160a01b0316156119a75760405162461bcd60e51b815260206004820152601c60248201527f4552433732313a20746f6b656e20616c7265616479206d696e746564000000006044820152606401610544565b6119b5600083836001611a92565b6000818152600260205260409020546001600160a01b031615611a1a5760405162461bcd60e51b815260206004820152601c60248201527f4552433732313a20746f6b656e20616c7265616479206d696e746564000000006044820152606401610544565b6001600160a01b0382166000818152600360209081526040808320805460010190558483526002909152808220805473ffffffffffffffffffffffffffffffffffffffff19168417905551839291907fddf252ad1be2c89b69c2b068fc378daa952ba7f163c4a11628f55a4df523b3ef908290a45050565b600181111561087b576001600160a01b03841615611ad8576001600160a01b03841660009081526003602052604081208054839290611ad2908490612337565b90915550505b6001600160a01b0383161561087b576001600160a01b03831660009081526003602052604081208054839290611b0f90849061223b565b909155505050505050565b6000807f7fffffffffffffffffffffffffffffff5d576e7357a4501ddfe92f46681b20a0831115611b515750600090506003611bd5565b6040805160008082526020820180845289905260ff881692820192909252606081018690526080810185905260019060a0016020604051602081039080840390855afa158015611ba5573d6000803e3d6000fd5b5050604051601f1901519150506001600160a01b038116611bce57600060019250925050611bd5565b9150600090505b94509492505050565b6000807a184f03e93ff9f4daa797ed6e38ed64bf6a1f0100000000000000008310611c27577a184f03e93ff9f4daa797ed6e38ed64bf6a1f010000000000000000830492506040015b6d04ee2d6d415b85acef81000000008310611c53576d04ee2d6d415b85acef8100000000830492506020015b662386f26fc100008310611c7157662386f26fc10000830492506010015b6305f5e1008310611c89576305f5e100830492506008015b6127108310611c9d57612710830492506004015b60648310611caf576064830492506002015b600a83106103f45760010192915050565b828054611ccc906121ea565b90600052602060002090601f016020900481019282611cee5760008555611d34565b82601f10611d0757805160ff1916838001178555611d34565b82800160010185558215611d34579182015b82811115611d34578251825591602001919060010190611d19565b50611d40929150611d44565b5090565b5b80821115611d405760008155600101611d45565b80356001600160a01b0381168114611d7057600080fd5b919050565b634e487b7160e01b600052604160045260246000fd5b600082601f830112611d9c57600080fd5b813567ffffffffffffffff80821115611db757611db7611d75565b604051601f8301601f19908116603f01168101908282118183101715611ddf57611ddf611d75565b81604052838152866020858801011115611df857600080fd5b836020870160208301376000602085830101528094505050505092915050565b60008060408385031215611e2b57600080fd5b611e3483611d59565b9150602083013567ffffffffffffffff811115611e5057600080fd5b611e5c85828601611d8b565b9150509250929050565b6001600160e01b031981168114610ce757600080fd5b600060208284031215611e8e57600080fd5b81356103af81611e66565b60005b83811015611eb4578181015183820152602001611e9c565b8381111561087b5750506000910152565b60008151808452611edd816020860160208601611e99565b601f01601f19169290920160200192915050565b6020815260006103af6020830184611ec5565b600060208284031215611f1657600080fd5b5035919050565b60008060408385031215611f3057600080fd5b611f3983611d59565b946020939093013593505050565b600080600080600060a08688031215611f5f57600080fd5b611f6886611d59565b9450611f7660208701611d59565b93506040860135925060608601359150608086013567ffffffffffffffff811115611fa057600080fd5b611fac88828901611d8b565b9150509295509295909350565b600080600060608486031215611fce57600080fd5b611fd784611d59565b9250611fe560208501611d59565b9150604084013590509250925092565b6020808252825182820181905260009190848201906040850190845b818110156120365783516001600160a01b031683529284019291840191600101612011565b50909695505050505050565b60006020828403121561205457600080fd5b6103af82611d59565b6000806000806080858703121561207357600080fd5b61207c85611d59565b93506020850135925060408501359150606085013567ffffffffffffffff8111156120a657600080fd5b6120b287828801611d8b565b91505092959194509250565b600080604083850312156120d157600080fd5b6120da83611d59565b9150602083013580151581146120ef57600080fd5b809150509250929050565b6000806000806080858703121561211057600080fd5b61211985611d59565b935061212760208601611d59565b925060408501359150606085013567ffffffffffffffff8111156120a657600080fd5b60006020828403121561215c57600080fd5b813567ffffffffffffffff81111561217357600080fd5b610a2084828501611d8b565b6020808252825182820181905260009190848201906040850190845b818110156120365783518352928401929184019160010161219b565b600080604083850312156121ca57600080fd5b6121d383611d59565b91506121e160208401611d59565b90509250929050565b600181811c908216806121fe57607f821691505b6020821081141561221f57634e487b7160e01b600052602260045260246000fd5b50919050565b634e487b7160e01b600052601160045260246000fd5b6000821982111561224e5761224e612225565b500190565b634e487b7160e01b600052603260045260246000fd5b600060001982141561227d5761227d612225565b5060010190565b60008351612296818460208801611e99565b8351908301906122aa818360208801611e99565b01949350505050565b828152604060208201526000610a206040830184611ec5565b600082516122de818460208701611e99565b9190910192915050565b6000602082840312156122fa57600080fd5b81516103af81611e66565b60006001600160a01b038087168352808616602084015250836040830152608060608301526116e86080830184611ec5565b60008282101561234957612349612225565b50039056fea2646970667358221220426e8d96bd73469255deaf9874ec799e3391bde2110e8083c5abdb3b2bc1f52b64736f6c63430008090033",
  "linkReferences": {},
  "deployedLinkReferences": {}
}