{
  "_format": "hh-sol-artifact-1",
  "contractName": "OneNFT",
  "sourceName": "contracts/OneNft.sol",
  "abi": [
    {
      "inputs": [
        {
          "internalType": "string",
          "name": "name",
          "type": "string"
        },
        {
          "internalType": "string",
          "name": "symbol",
          "type": "string"
        }
      ],
      "stateMutability": "nonpayable",
      "type": "constructor"
    },
    {
      "anonymous": false,
      "inputs": [
        {
          "indexed": true,
          "internalType": "address",
          "name": "owner",
          "type": "address"
        },
        {
          "indexed": true,
          "internalType": "address",
          "name": "approved",
          "type": "address"
        },
        {
          "indexed": true,
          "internalType": "uint256",
          "name": "tokenId",
          "type": "uint256"
        }
      ],
      "name": "Approval",
      "type": "event"
    },
    {
      "anonymous": false,
      "inputs": [
        {
          "indexed": true,
          "internalType": "address",
          "name": "owner",
          "type": "address"
        },
        {
          "indexed": true,
          "internalType": "address",
          "name": "operator",
          "type": "address"
        },
        {
          "indexed": false,
          "internalType": "bool",
          "name": "approved",
          "type": "bool"
        }
      ],
      "name": "ApprovalForAll",
      "type": "event"
    },
    {
      "anonymous": false,
      "inputs": [
        {
          "indexed": true,
          "internalType": "address",
          "name": "from",
          "type": "address"
        },
        {
          "indexed": true,
          "internalType": "address",
          "name": "to",
          "type": "address"
        },
        {
          "indexed": true,
          "internalType": "uint256",
          "name": "tokenId",
          "type": "uint256"
        }
      ],
      "name": "Transfer",
      "type": "event"
    },
    {
      "inputs": [],
      "name": "DOMAIN_SEPARATOR",
      "outputs": [
        {
          "internalType": "bytes32",
          "name": "",
          "type": "bytes32"
        }
      ],
      "stateMutability": "view",
      "type": "function"
    },
    {
      "inputs": [
        {
          "internalType": "address",
          "name": "to",
          "type": "address"
        },
        {
          "internalType": "uint256",
          "name": "tokenId",
          "type": "uint256"
        }
      ],
      "name": "approve",
      "outputs": [],
      "stateMutability": "nonpayable",
      "type": "function"
    },
    {
      "inputs": [
        {
          "internalType": "address",
          "name": "owner",
          "type": "address"
        }
      ],
      "name": "balanceOf",
      "outputs": [
        {
          "internalType": "uint256",
          "name": "",
          "type": "uint256"
        }
      ],
      "stateMutability": "view",
      "type": "function"
    },
    {
      "inputs": [
        {
          "internalType": "uint256",
          "name": "tokenId",
          "type": "uint256"
        }
      ],
      "name": "getApproved",
      "outputs": [
        {
          "internalType": "address",
          "name": "",
          "type": "address"
        }
      ],
      "stateMutability": "view",
      "type": "function"
    },
    {
      "inputs": [],
      "name": "getCurrentId",
      "outputs": [
        {
          "internalType": "uint256",
          "name": "",
          "type": "uint256"
        }
      ],
      "stateMutability": "view",
      "type": "function"
    },
    {
      "inputs": [
        {
          "internalType": "address",
          "name": "owner",
          "type": "address"
        },
        {
          "internalType": "address",
          "name": "operator",
          "type": "address"
        }
      ],
      "name": "isApprovedForAll",
      "outputs": [
        {
          "internalType": "bool",
          "name": "",
          "type": "bool"
        }
      ],
      "stateMutability": "view",
      "type": "function"
    },
    {
      "inputs": [
        {
          "internalType": "string",
          "name": "_tokenURI",
          "type": "string"
        }
      ],
      "name": "mint",
      "outputs": [
        {
          "internalType": "uint256",
          "name": "",
          "type": "uint256"
        }
      ],
      "stateMutability": "nonpayable",
      "type": "function"
    },
    {
      "inputs": [
        {
          "internalType": "address",
          "name": "receiver",
          "type": "address"
        },
        {
          "internalType": "string",
          "name": "_tokenURI",
          "type": "string"
        }
      ],
      "name": "mintTo",
      "outputs": [
        {
          "internalType": "uint256",
          "name": "",
          "type": "uint256"
        }
      ],
      "stateMutability": "nonpayable",
      "type": "function"
    },
    {
      "inputs": [],
      "name": "name",
      "outputs": [
        {
          "internalType": "string",
          "name": "",
          "type": "string"
        }
      ],
      "stateMutability": "view",
      "type": "function"
    },
    {
      "inputs": [
        {
          "internalType": "uint256",
          "name": "tokenId",
          "type": "uint256"
        }
      ],
      "name": "nonces",
      "outputs": [
        {
          "internalType": "uint256",
          "name": "",
          "type": "uint256"
        }
      ],
      "stateMutability": "view",
      "type": "function"
    },
    {
      "inputs": [
        {
          "internalType": "uint256",
          "name": "tokenId",
          "type": "uint256"
        }
      ],
      "name": "ownerOf",
      "outputs": [
        {
          "internalType": "address",
          "name": "",
          "type": "address"
        }
      ],
      "stateMutability": "view",
      "type": "function"
    },
    {
      "inputs": [
        {
          "internalType": "address",
          "name": "spender",
          "type": "address"
        },
        {
          "internalType": "uint256",
          "name": "tokenId",
          "type": "uint256"
        },
        {
          "internalType": "uint256",
          "name": "deadline",
          "type": "uint256"
        },
        {
          "internalType": "bytes",
          "name": "signature",
          "type": "bytes"
        }
      ],
      "name": "permit",
      "outputs": [],
      "stateMutability": "nonpayable",
      "type": "function"
    },
    {
      "inputs": [
        {
          "internalType": "address",
          "name": "from",
          "type": "address"
        },
        {
          "internalType": "address",
          "name": "to",
          "type": "address"
        },
        {
          "internalType": "uint256",
          "name": "tokenId",
          "type": "uint256"
        }
      ],
      "name": "safeTransferFrom",
      "outputs": [],
      "stateMutability": "nonpayable",
      "type": "function"
    },
    {
      "inputs": [
        {
          "internalType": "address",
          "name": "from",
          "type": "address"
        },
        {
          "internalType": "address",
          "name": "to",
          "type": "address"
        },
        {
          "internalType": "uint256",
          "name": "tokenId",
          "type": "uint256"
        },
        {
          "internalType": "bytes",
          "name": "data",
          "type": "bytes"
        }
      ],
      "name": "safeTransferFrom",
      "outputs": [],
      "stateMutability": "nonpayable",
      "type": "function"
    },
    {
      "inputs": [
        {
          "internalType": "address",
          "name": "from",
          "type": "address"
        },
        {
          "internalType": "address",
          "name": "to",
          "type": "address"
        },
        {
          "internalType": "uint256",
          "name": "tokenId",
          "type": "uint256"
        },
        {
          "internalType": "uint256",
          "name": "deadline",
          "type": "uint256"
        },
        {
          "internalType": "bytes",
          "name": "signature",
          "type": "bytes"
        }
      ],
      "name": "safeTransferFromWithPermit",
      "outputs": [],
      "stateMutability": "nonpayable",
      "type": "function"
    },
    {
      "inputs": [
        {
          "internalType": "address",
          "name": "operator",
          "type": "address"
        },
        {
          "internalType": "bool",
          "name": "approved",
          "type": "bool"
        }
      ],
      "name": "setApprovalForAll",
      "outputs": [],
      "stateMutability": "nonpayable",
      "type": "function"
    },
    {
      "inputs": [
        {
          "internalType": "bytes4",
          "name": "interfaceId",
          "type": "bytes4"
        }
      ],
      "name": "supportsInterface",
      "outputs": [
        {
          "internalType": "bool",
          "name": "",
          "type": "bool"
        }
      ],
      "stateMutability": "view",
      "type": "function"
    },
    {
      "inputs": [],
      "name": "symbol",
      "outputs": [
        {
          "internalType": "string",
          "name": "",
          "type": "string"
        }
      ],
      "stateMutability": "view",
      "type": "function"
    },
    {
      "inputs": [
        {
          "internalType": "uint256",
          "name": "tokenId",
          "type": "uint256"
        }
      ],
      "name": "tokenURI",
      "outputs": [
        {
          "internalType": "string",
          "name": "",
          "type": "string"
        }
      ],
      "stateMutability": "view",
      "type": "function"
    },
    {
      "inputs": [
        {
          "internalType": "address",
          "name": "from",
          "type": "address"
        },
        {
          "internalType": "address",
          "name": "to",
          "type": "address"
        },
        {
          "internalType": "uint256",
          "name": "tokenId",
          "type": "uint256"
        }
      ],
      "name": "transferFrom",
      "outputs": [],
      "stateMutability": "nonpayable",
      "type": "function"
    }
  ],
  "bytecode": "0x6101606040527f49ecf333e5b8c95c40fdafc95c1ad136e8914a8fb55e9dc8bb01eaa83a2df9ad610140523480156200003757600080fd5b50604051620024da380380620024da8339810160408190526200005a91620002cb565b818181604051806040016040528060018152602001603160f81b815250838381600090805190602001906200009192919062000158565b508051620000a790600190602084019062000158565b5050825160208085019190912083518483012060e08290526101008190524660a0818152604080517f8b73c3c69bb8fe3d512ecc4cf759cc79239f7b179b0ffacaa9a75d522b39400f81880181905281830187905260608201869052608082019490945230818401528151808203909301835260c0019052805194019390932091935091906080523060c052610120525050600880546001600160a01b031916331790555062000372945050505050565b828054620001669062000335565b90600052602060002090601f0160209004810192826200018a5760008555620001d5565b82601f10620001a557805160ff1916838001178555620001d5565b82800160010185558215620001d5579182015b82811115620001d5578251825591602001919060010190620001b8565b50620001e3929150620001e7565b5090565b5b80821115620001e35760008155600101620001e8565b634e487b7160e01b600052604160045260246000fd5b600082601f8301126200022657600080fd5b81516001600160401b0380821115620002435762000243620001fe565b604051601f8301601f19908116603f011681019082821181831017156200026e576200026e620001fe565b816040528381526020925086838588010111156200028b57600080fd5b600091505b83821015620002af578582018301518183018401529082019062000290565b83821115620002c15760008385830101525b9695505050505050565b60008060408385031215620002df57600080fd5b82516001600160401b0380821115620002f757600080fd5b620003058683870162000214565b935060208501519150808211156200031c57600080fd5b506200032b8582860162000214565b9150509250929050565b600181811c908216806200034a57607f821691505b602082108114156200036c57634e487b7160e01b600052602260045260246000fd5b50919050565b60805160a05160c05160e05161010051610120516101405161210d620003cd6000396000610dde01526000610cdb01526000610d2a01526000610d0501526000610c5e01526000610c8801526000610cb2015261210d6000f3fe608060405234801561001057600080fd5b506004361061016b5760003560e01c80636352211e116100cd578063a22cb46511610081578063c87b56dd11610066578063c87b56dd146102d1578063d85d3d27146102e4578063e985e9c5146102f757600080fd5b8063a22cb465146102ab578063b88d4fde146102be57600080fd5b806370a08231116100b257806370a082311461027d578063745a41bc1461029057806395d89b41146102a357600080fd5b80636352211e146102625780636c1438621461027557600080fd5b8063141a468c1161012457806323b872dd1161010957806323b872dd146102345780633644e5151461024757806342842e0e1461024f57600080fd5b8063141a468c1461020e57806316ff724b1461022157600080fd5b806306fdde031161015557806306fdde03146101b9578063081812fc146101ce578063095ea7b3146101f957600080fd5b806275a3171461017057806301ffc9a714610196575b600080fd5b61018361017e366004611c57565b610333565b6040519081526020015b60405180910390f35b6101a96101a4366004611cbb565b61036b565b604051901515815260200161018d565b6101c16103af565b60405161018d9190611d30565b6101e16101dc366004611d43565b610441565b6040516001600160a01b03909116815260200161018d565b61020c610207366004611d5c565b610468565b005b61018361021c366004611d43565b61059f565b61020c61022f366004611d86565b6105b3565b61020c610242366004611df8565b6105c7565b61018361063e565b61020c61025d366004611df8565b61064d565b6101e1610270366004611d43565b610668565b6101836106cd565b61018361028b366004611e34565b6106d8565b61020c61029e366004611e4f565b610772565b6101c1610784565b61020c6102b9366004611eb0565b610793565b61020c6102cc366004611eec565b6107a2565b6101c16102df366004611d43565b61081a565b6101836102f2366004611f3c565b61092b565b6101a9610305366004611f71565b6001600160a01b03918216600090815260056020908152604080832093909416825291909152205460ff1690565b6000610343600a80546001019055565b600061034e600a5490565b905061035a848261095c565b6103648184610976565b9392505050565b60006001600160e01b031982167f5604e2250000000000000000000000000000000000000000000000000000000014806103a957506103a982610a1f565b92915050565b6060600080546103be90611fa4565b80601f01602080910402602001604051908101604052809291908181526020018280546103ea90611fa4565b80156104375780601f1061040c57610100808354040283529160200191610437565b820191906000526020600020905b81548152906001019060200180831161041a57829003601f168201915b5050505050905090565b600061044c82610aba565b506000908152600460205260409020546001600160a01b031690565b600061047382610668565b9050806001600160a01b0316836001600160a01b031614156105025760405162461bcd60e51b815260206004820152602160248201527f4552433732313a20617070726f76616c20746f2063757272656e74206f776e6560448201527f720000000000000000000000000000000000000000000000000000000000000060648201526084015b60405180910390fd5b336001600160a01b038216148061051e575061051e8133610305565b6105905760405162461bcd60e51b815260206004820152603d60248201527f4552433732313a20617070726f76652063616c6c6572206973206e6f7420746f60448201527f6b656e206f776e6572206f7220617070726f76656420666f7220616c6c00000060648201526084016104f9565b61059a8383610b21565b505050565b6000818152600660205260408120546103a9565b6105c08585858585610b9c565b5050505050565b6105d13382610bb3565b6106335760405162461bcd60e51b815260206004820152602d60248201527f4552433732313a2063616c6c6572206973206e6f7420746f6b656e206f776e6560448201526c1c881bdc88185c1c1c9bdd9959609a1b60648201526084016104f9565b61059a838383610c31565b6000610648610c51565b905090565b61059a838383604051806020016040528060008152506107a2565b6000818152600260205260408120546001600160a01b0316806103a95760405162461bcd60e51b815260206004820152601860248201527f4552433732313a20696e76616c696420746f6b656e204944000000000000000060448201526064016104f9565b6000610648600a5490565b60006001600160a01b0382166107565760405162461bcd60e51b815260206004820152602960248201527f4552433732313a2061646472657373207a65726f206973206e6f74206120766160448201527f6c6964206f776e6572000000000000000000000000000000000000000000000060648201526084016104f9565b506001600160a01b031660009081526003602052604090205490565b61077e84848484610d78565b50505050565b6060600180546103be90611fa4565b61079e338383610f05565b5050565b6107ac3383610bb3565b61080e5760405162461bcd60e51b815260206004820152602d60248201527f4552433732313a2063616c6c6572206973206e6f7420746f6b656e206f776e6560448201526c1c881bdc88185c1c1c9bdd9959609a1b60648201526084016104f9565b61077e84848484610fd4565b606061082582610aba565b6000828152600760205260408120805461083e90611fa4565b80601f016020809104026020016040519081016040528092919081815260200182805461086a90611fa4565b80156108b75780601f1061088c576101008083540402835291602001916108b7565b820191906000526020600020905b81548152906001019060200180831161089a57829003601f168201915b5050505050905060006108d560408051602081019091526000815290565b90508051600014156108e8575092915050565b81511561091a578082604051602001610902929190611fdf565b60405160208183030381529060405292505050919050565b61092384611052565b949350505050565b600061093b600a80546001019055565b6000610946600a5490565b9050610952338261095c565b6103a98184610976565b61079e8282604051806020016040528060008152506110c5565b6000828152600260205260409020546001600160a01b0316610a005760405162461bcd60e51b815260206004820152602e60248201527f45524337323155524953746f726167653a2055524920736574206f66206e6f6e60448201527f6578697374656e7420746f6b656e00000000000000000000000000000000000060648201526084016104f9565b6000828152600760209081526040909120825161059a92840190611aff565b60006001600160e01b031982167f80ac58cd000000000000000000000000000000000000000000000000000000001480610a8257506001600160e01b031982167f5b5e139f00000000000000000000000000000000000000000000000000000000145b806103a957507f01ffc9a7000000000000000000000000000000000000000000000000000000006001600160e01b03198316146103a9565b6000818152600260205260409020546001600160a01b0316610b1e5760405162461bcd60e51b815260206004820152601860248201527f4552433732313a20696e76616c696420746f6b656e204944000000000000000060448201526064016104f9565b50565b6000818152600460205260409020805473ffffffffffffffffffffffffffffffffffffffff19166001600160a01b0384169081179091558190610b6382610668565b6001600160a01b03167f8c5be1e5ebec7d5bd14f71427d1e84f3dd0314c0f7b2291e5b200ac8c7c3b92560405160405180910390a45050565b610ba833848484610d78565b6105c0858585610c31565b600080610bbf83610668565b9050806001600160a01b0316846001600160a01b03161480610c0657506001600160a01b0380821660009081526005602090815260408083209388168352929052205460ff165b806109235750836001600160a01b0316610c1f84610441565b6001600160a01b031614949350505050565b60008181526006602052604090208054600101905561059a838383611143565b6000306001600160a01b037f000000000000000000000000000000000000000000000000000000000000000016148015610caa57507f000000000000000000000000000000000000000000000000000000000000000046145b15610cd457507f000000000000000000000000000000000000000000000000000000000000000090565b50604080517f00000000000000000000000000000000000000000000000000000000000000006020808301919091527f0000000000000000000000000000000000000000000000000000000000000000828401527f000000000000000000000000000000000000000000000000000000000000000060608301524660808301523060a0808401919091528351808403909101815260c0909201909252805191012090565b81421115610dc85760405162461bcd60e51b815260206004820152601e60248201527f4552433732315065726d69743a206578706972656420646561646c696e65000060448201526064016104f9565b60008381526006602090815260408083205481517f0000000000000000000000000000000000000000000000000000000000000000818501526001600160a01b0389168184015260608101889052608081019190915260a08082018790528251808303909101815260c0909101909152805191012090610e4782611356565b90506000610e5582856113bf565b50905060006001600160a01b03821615801590610e775750610e778288610bb3565b90508080610e935750610e93610e8c88610668565b8487611405565b80610ea55750610ea5610e8c88610441565b610ef15760405162461bcd60e51b815260206004820152601f60248201527f4552433732315065726d69743a20696e76616c6964207369676e61747572650060448201526064016104f9565b610efb8888610b21565b5050505050505050565b816001600160a01b0316836001600160a01b03161415610f675760405162461bcd60e51b815260206004820152601960248201527f4552433732313a20617070726f766520746f2063616c6c65720000000000000060448201526064016104f9565b6001600160a01b03838116600081815260056020908152604080832094871680845294825291829020805460ff191686151590811790915591519182527f17307eab39ab6107e8899845ad3d59bd9653f200f220920489ca2b5937696c31910160405180910390a3505050565b610fdf848484610c31565b610feb84848484611529565b61077e5760405162461bcd60e51b815260206004820152603260248201527f4552433732313a207472616e7366657220746f206e6f6e20455243373231526560448201527131b2b4bb32b91034b6b83632b6b2b73a32b960711b60648201526084016104f9565b606061105d82610aba565b600061107460408051602081019091526000815290565b905060008151116110945760405180602001604052806000815250610364565b8061109e84611681565b6040516020016110af929190611fdf565b6040516020818303038152906040529392505050565b6110cf838361172b565b6110dc6000848484611529565b61059a5760405162461bcd60e51b815260206004820152603260248201527f4552433732313a207472616e7366657220746f206e6f6e20455243373231526560448201527131b2b4bb32b91034b6b83632b6b2b73a32b960711b60648201526084016104f9565b826001600160a01b031661115682610668565b6001600160a01b0316146111ba5760405162461bcd60e51b815260206004820152602560248201527f4552433732313a207472616e736665722066726f6d20696e636f72726563742060448201526437bbb732b960d91b60648201526084016104f9565b6001600160a01b0382166112355760405162461bcd60e51b8152602060048201526024808201527f4552433732313a207472616e7366657220746f20746865207a65726f2061646460448201527f726573730000000000000000000000000000000000000000000000000000000060648201526084016104f9565b61124283838360016118d1565b826001600160a01b031661125582610668565b6001600160a01b0316146112b95760405162461bcd60e51b815260206004820152602560248201527f4552433732313a207472616e736665722066726f6d20696e636f72726563742060448201526437bbb732b960d91b60648201526084016104f9565b6000818152600460209081526040808320805473ffffffffffffffffffffffffffffffffffffffff199081169091556001600160a01b0387811680865260038552838620805460001901905590871680865283862080546001019055868652600290945282852080549092168417909155905184937fddf252ad1be2c89b69c2b068fc378daa952ba7f163c4a11628f55a4df523b3ef91a4505050565b60006103a9611363610c51565b836040517f19010000000000000000000000000000000000000000000000000000000000006020820152602281018390526042810182905260009060620160405160208183030381529060405280519060200120905092915050565b6000808251604114156113f65760208301516040840151606085015160001a6113ea87828585611959565b945094505050506113fe565b506000905060025b9250929050565b6000806000856001600160a01b0316631626ba7e60e01b868660405160240161142f92919061200e565b60408051601f198184030181529181526020820180517bffffffffffffffffffffffffffffffffffffffffffffffffffffffff166001600160e01b03199094169390931790925290516114829190612027565b600060405180830381855afa9150503d80600081146114bd576040519150601f19603f3d011682016040523d82523d6000602084013e6114c2565b606091505b50915091508180156114d5575080516020145b801561151f575080517f1626ba7e00000000000000000000000000000000000000000000000000000000906115139083016020908101908401612043565b6001600160e01b031916145b9695505050505050565b60006001600160a01b0384163b1561167657604051630a85bd0160e11b81526001600160a01b0385169063150b7a029061156d903390899088908890600401612060565b602060405180830381600087803b15801561158757600080fd5b505af19250505080156115b7575060408051601f3d908101601f191682019092526115b491810190612043565b60015b61165c573d8080156115e5576040519150601f19603f3d011682016040523d82523d6000602084013e6115ea565b606091505b5080516116545760405162461bcd60e51b815260206004820152603260248201527f4552433732313a207472616e7366657220746f206e6f6e20455243373231526560448201527131b2b4bb32b91034b6b83632b6b2b73a32b960711b60648201526084016104f9565b805181602001fd5b6001600160e01b031916630a85bd0160e11b149050610923565b506001949350505050565b6060600061168e83611a1d565b600101905060008167ffffffffffffffff8111156116ae576116ae611bb4565b6040519080825280601f01601f1916602001820160405280156116d8576020820181803683370190505b5090508181016020015b600019017f3031323334353637383961626364656600000000000000000000000000000000600a86061a8153600a850494508461171e57611723565b6116e2565b509392505050565b6001600160a01b0382166117815760405162461bcd60e51b815260206004820181905260248201527f4552433732313a206d696e7420746f20746865207a65726f206164647265737360448201526064016104f9565b6000818152600260205260409020546001600160a01b0316156117e65760405162461bcd60e51b815260206004820152601c60248201527f4552433732313a20746f6b656e20616c7265616479206d696e7465640000000060448201526064016104f9565b6117f46000838360016118d1565b6000818152600260205260409020546001600160a01b0316156118595760405162461bcd60e51b815260206004820152601c60248201527f4552433732313a20746f6b656e20616c7265616479206d696e7465640000000060448201526064016104f9565b6001600160a01b0382166000818152600360209081526040808320805460010190558483526002909152808220805473ffffffffffffffffffffffffffffffffffffffff19168417905551839291907fddf252ad1be2c89b69c2b068fc378daa952ba7f163c4a11628f55a4df523b3ef908290a45050565b600181111561077e576001600160a01b03841615611917576001600160a01b038416600090815260036020526040812080548392906119119084906120a8565b90915550505b6001600160a01b0383161561077e576001600160a01b0383166000908152600360205260408120805483929061194e9084906120bf565b909155505050505050565b6000807f7fffffffffffffffffffffffffffffff5d576e7357a4501ddfe92f46681b20a08311156119905750600090506003611a14565b6040805160008082526020820180845289905260ff881692820192909252606081018690526080810185905260019060a0016020604051602081039080840390855afa1580156119e4573d6000803e3d6000fd5b5050604051601f1901519150506001600160a01b038116611a0d57600060019250925050611a14565b9150600090505b94509492505050565b6000807a184f03e93ff9f4daa797ed6e38ed64bf6a1f0100000000000000008310611a66577a184f03e93ff9f4daa797ed6e38ed64bf6a1f010000000000000000830492506040015b6d04ee2d6d415b85acef81000000008310611a92576d04ee2d6d415b85acef8100000000830492506020015b662386f26fc100008310611ab057662386f26fc10000830492506010015b6305f5e1008310611ac8576305f5e100830492506008015b6127108310611adc57612710830492506004015b60648310611aee576064830492506002015b600a83106103a95760010192915050565b828054611b0b90611fa4565b90600052602060002090601f016020900481019282611b2d5760008555611b73565b82601f10611b4657805160ff1916838001178555611b73565b82800160010185558215611b73579182015b82811115611b73578251825591602001919060010190611b58565b50611b7f929150611b83565b5090565b5b80821115611b7f5760008155600101611b84565b80356001600160a01b0381168114611baf57600080fd5b919050565b634e487b7160e01b600052604160045260246000fd5b600082601f830112611bdb57600080fd5b813567ffffffffffffffff80821115611bf657611bf6611bb4565b604051601f8301601f19908116603f01168101908282118183101715611c1e57611c1e611bb4565b81604052838152866020858801011115611c3757600080fd5b836020870160208301376000602085830101528094505050505092915050565b60008060408385031215611c6a57600080fd5b611c7383611b98565b9150602083013567ffffffffffffffff811115611c8f57600080fd5b611c9b85828601611bca565b9150509250929050565b6001600160e01b031981168114610b1e57600080fd5b600060208284031215611ccd57600080fd5b813561036481611ca5565b60005b83811015611cf3578181015183820152602001611cdb565b8381111561077e5750506000910152565b60008151808452611d1c816020860160208601611cd8565b601f01601f19169290920160200192915050565b6020815260006103646020830184611d04565b600060208284031215611d5557600080fd5b5035919050565b60008060408385031215611d6f57600080fd5b611d7883611b98565b946020939093013593505050565b600080600080600060a08688031215611d9e57600080fd5b611da786611b98565b9450611db560208701611b98565b93506040860135925060608601359150608086013567ffffffffffffffff811115611ddf57600080fd5b611deb88828901611bca565b9150509295509295909350565b600080600060608486031215611e0d57600080fd5b611e1684611b98565b9250611e2460208501611b98565b9150604084013590509250925092565b600060208284031215611e4657600080fd5b61036482611b98565b60008060008060808587031215611e6557600080fd5b611e6e85611b98565b93506020850135925060408501359150606085013567ffffffffffffffff811115611e9857600080fd5b611ea487828801611bca565b91505092959194509250565b60008060408385031215611ec357600080fd5b611ecc83611b98565b915060208301358015158114611ee157600080fd5b809150509250929050565b60008060008060808587031215611f0257600080fd5b611f0b85611b98565b9350611f1960208601611b98565b925060408501359150606085013567ffffffffffffffff811115611e9857600080fd5b600060208284031215611f4e57600080fd5b813567ffffffffffffffff811115611f6557600080fd5b61092384828501611bca565b60008060408385031215611f8457600080fd5b611f8d83611b98565b9150611f9b60208401611b98565b90509250929050565b600181811c90821680611fb857607f821691505b60208210811415611fd957634e487b7160e01b600052602260045260246000fd5b50919050565b60008351611ff1818460208801611cd8565b835190830190612005818360208801611cd8565b01949350505050565b8281526040602082015260006109236040830184611d04565b60008251612039818460208701611cd8565b9190910192915050565b60006020828403121561205557600080fd5b815161036481611ca5565b60006001600160a01b0380871683528086166020840152508360408301526080606083015261151f6080830184611d04565b634e487b7160e01b600052601160045260246000fd5b6000828210156120ba576120ba612092565b500390565b600082198211156120d2576120d2612092565b50019056fea2646970667358221220f9836947362be2d5b66dc9b586eed25942d07bf6b8796e6006f0f3740848911364736f6c63430008090033",
  "linkReferences": {},
  "deployedLinkReferences": {}
}